{
  "_format": "hh-sol-artifact-1",
  "contractName": "Mining",
  "sourceName": "contracts/flattened/Mining.sol",
  "abi": [
    {
      "inputs": [
        {
          "components": [
            {
              "internalType": "uint8",
              "name": "fiboEpochsCnt",
              "type": "uint8"
            },
            {
              "internalType": "uint8",
              "name": "extraEpochsCnt",
              "type": "uint8"
            },
            {
              "internalType": "uint32",
              "name": "blocksPerEpoch",
              "type": "uint32"
            },
            {
              "internalType": "uint32",
              "name": "secondsPerBlock",
              "type": "uint32"
            }
          ],
          "internalType": "struct IMining.initdata",
          "name": "p_initData",
          "type": "tuple"
        },
        {
          "internalType": "uint40",
          "name": "p_timestamp",
          "type": "uint40"
        }
      ],
      "stateMutability": "nonpayable",
      "type": "constructor"
    },
    {
      "inputs": [
        {
          "internalType": "uint256",
          "name": "value",
          "type": "uint256"
        },
        {
          "internalType": "uint256",
          "name": "length",
          "type": "uint256"
        }
      ],
      "name": "StringsInsufficientHexLength",
      "type": "error"
    },
    {
      "anonymous": false,
      "inputs": [
        {
          "indexed": true,
          "internalType": "uint24",
          "name": "blockid",
          "type": "uint24"
        },
        {
          "indexed": false,
          "internalType": "address[]",
          "name": "winners",
          "type": "address[]"
        }
      ],
      "name": "BlockSealed",
      "type": "event"
    },
    {
      "anonymous": false,
      "inputs": [
        {
          "indexed": true,
          "internalType": "uint24",
          "name": "blockid",
          "type": "uint24"
        },
        {
          "indexed": true,
          "internalType": "address",
          "name": "miner",
          "type": "address"
        },
        {
          "indexed": false,
          "internalType": "string",
          "name": "key",
          "type": "string"
        },
        {
          "indexed": false,
          "internalType": "string",
          "name": "salt",
          "type": "string"
        }
      ],
      "name": "KeyValidated",
      "type": "event"
    },
    {
      "inputs": [
        {
          "internalType": "uint256",
          "name": "",
          "type": "uint256"
        }
      ],
      "name": "currentBlockWinners",
      "outputs": [
        {
          "internalType": "address",
          "name": "miner",
          "type": "address"
        },
        {
          "internalType": "string",
          "name": "keysalt",
          "type": "string"
        }
      ],
      "stateMutability": "view",
      "type": "function"
    },
    {
      "inputs": [
        {
          "internalType": "uint24",
          "name": "p_id",
          "type": "uint24"
        }
      ],
      "name": "getBlock",
      "outputs": [
        {
          "components": [
            {
              "internalType": "uint24",
              "name": "id",
              "type": "uint24"
            },
            {
              "internalType": "bool",
              "name": "sealed_",
              "type": "bool"
            },
            {
              "internalType": "uint128",
              "name": "random",
              "type": "uint128"
            },
            {
              "internalType": "uint40",
              "name": "deadline",
              "type": "uint40"
            },
            {
              "internalType": "uint8",
              "name": "difficulty",
              "type": "uint8"
            },
            {
              "internalType": "uint8",
              "name": "winnerscnt",
              "type": "uint8"
            }
          ],
          "internalType": "struct IMining.zblock",
          "name": "",
          "type": "tuple"
        }
      ],
      "stateMutability": "view",
      "type": "function"
    },
    {
      "inputs": [
        {
          "internalType": "uint40",
          "name": "p_timestamp",
          "type": "uint40"
        }
      ],
      "name": "getCurrentBlock",
      "outputs": [
        {
          "components": [
            {
              "internalType": "uint24",
              "name": "id",
              "type": "uint24"
            },
            {
              "internalType": "bool",
              "name": "sealed_",
              "type": "bool"
            },
            {
              "internalType": "uint128",
              "name": "random",
              "type": "uint128"
            },
            {
              "internalType": "uint40",
              "name": "deadline",
              "type": "uint40"
            },
            {
              "internalType": "uint8",
              "name": "difficulty",
              "type": "uint8"
            },
            {
              "internalType": "uint8",
              "name": "winnerscnt",
              "type": "uint8"
            }
          ],
          "internalType": "struct IMining.zblock",
          "name": "",
          "type": "tuple"
        }
      ],
      "stateMutability": "view",
      "type": "function"
    },
    {
      "inputs": [
        {
          "internalType": "uint8",
          "name": "p_epoch",
          "type": "uint8"
        }
      ],
      "name": "getEpochData",
      "outputs": [
        {
          "components": [
            {
              "internalType": "uint256",
              "name": "blockreward",
              "type": "uint256"
            },
            {
              "internalType": "uint8",
              "name": "maxwinners",
              "type": "uint8"
            },
            {
              "components": [
                {
                  "internalType": "uint256",
                  "name": "reported",
                  "type": "uint256"
                },
                {
                  "internalType": "uint256[]",
                  "name": "winamount",
                  "type": "uint256[]"
                }
              ],
              "internalType": "struct IMining.rewarddata[]",
              "name": "rewarddata",
              "type": "tuple[]"
            }
          ],
          "internalType": "struct IMining.epochdata",
          "name": "",
          "type": "tuple"
        }
      ],
      "stateMutability": "view",
      "type": "function"
    },
    {
      "inputs": [
        {
          "internalType": "uint24",
          "name": "p_blockid",
          "type": "uint24"
        }
      ],
      "name": "getRewardsForBlock",
      "outputs": [
        {
          "internalType": "uint256[]",
          "name": "",
          "type": "uint256[]"
        }
      ],
      "stateMutability": "view",
      "type": "function"
    },
    {
      "inputs": [
        {
          "internalType": "uint24",
          "name": "p_id",
          "type": "uint24"
        }
      ],
      "name": "idToEpoch",
      "outputs": [
        {
          "internalType": "uint8",
          "name": "",
          "type": "uint8"
        }
      ],
      "stateMutability": "view",
      "type": "function"
    },
    {
      "inputs": [],
      "name": "initData",
      "outputs": [
        {
          "internalType": "uint8",
          "name": "fiboEpochsCnt",
          "type": "uint8"
        },
        {
          "internalType": "uint8",
          "name": "extraEpochsCnt",
          "type": "uint8"
        },
        {
          "internalType": "uint32",
          "name": "blocksPerEpoch",
          "type": "uint32"
        },
        {
          "internalType": "uint32",
          "name": "secondsPerBlock",
          "type": "uint32"
        }
      ],
      "stateMutability": "view",
      "type": "function"
    },
    {
      "inputs": [
        {
          "internalType": "address",
          "name": "p_address",
          "type": "address"
        },
        {
          "internalType": "string",
          "name": "p_key",
          "type": "string"
        },
        {
          "internalType": "string",
          "name": "p_salt",
          "type": "string"
        },
        {
          "internalType": "uint40",
          "name": "p_timestamp",
          "type": "uint40"
        }
      ],
      "name": "postKey",
      "outputs": [
        {
          "internalType": "address[]",
          "name": "winners",
          "type": "address[]"
        },
        {
          "internalType": "uint24",
          "name": "",
          "type": "uint24"
        }
      ],
      "stateMutability": "nonpayable",
      "type": "function"
    },
    {
      "inputs": [
        {
          "internalType": "uint24",
          "name": "p_blockid",
          "type": "uint24"
        },
        {
          "internalType": "uint40",
          "name": "p_timestamp",
          "type": "uint40"
        }
      ],
      "name": "sealBlock",
      "outputs": [
        {
          "internalType": "address[]",
          "name": "",
          "type": "address[]"
        }
      ],
      "stateMutability": "nonpayable",
      "type": "function"
    },
    {
      "inputs": [
        {
          "internalType": "address",
          "name": "p_tokenContractAddress",
          "type": "address"
        }
      ],
      "name": "setTokenContract",
      "outputs": [
        {
          "internalType": "bool",
          "name": "",
          "type": "bool"
        }
      ],
      "stateMutability": "nonpayable",
      "type": "function"
    },
    {
      "inputs": [],
      "name": "tokenContractAddress",
      "outputs": [
        {
          "internalType": "address",
          "name": "",
          "type": "address"
        }
      ],
      "stateMutability": "view",
      "type": "function"
    },
    {
      "inputs": [],
      "name": "totalBlocks",
      "outputs": [
        {
          "internalType": "uint256",
          "name": "",
          "type": "uint256"
        }
      ],
      "stateMutability": "view",
      "type": "function"
    },
    {
      "inputs": [
        {
          "internalType": "uint40",
          "name": "p_timestamp",
          "type": "uint40"
        }
      ],
      "name": "updateRandom",
      "outputs": [
        {
          "internalType": "bool",
          "name": "",
          "type": "bool"
        }
      ],
      "stateMutability": "nonpayable",
      "type": "function"
    }
  ],
  "bytecode": "0x60806040523480156200001157600080fd5b5060405162005ab938038062005ab983398181016040528101906200003791906200107f565b81600260008201518160000160006101000a81548160ff021916908360ff16021790555060208201518160000160016101000a81548160ff021916908360ff16021790555060408201518160000160026101000a81548163ffffffff021916908363ffffffff16021790555060608201518160000160066101000a81548163ffffffff021916908363ffffffff160217905550905050600260000160019054906101000a900460ff16600260000160009054906101000a900460ff16620000ff9190620010f5565b60ff16600260000160029054906101000a900463ffffffff1662000124919062001131565b63ffffffff1660038190555062000166600260000160009054906101000a900460ff16600260000160019054906101000a900460ff166200029360201b60201c565b620001778162000ac360201b60201c565b5b600180815481106200018f576200018e62001177565b5b906000526020600020906003020160010160009054906101000a900460ff1660ff1660058054905010156200028b5760056040518060400160405280600073ffffffffffffffffffffffffffffffffffffffff16815260200160405180602001604052806000815250815250908060018154018082558091505060019003906000526020600020906002020160009091909190915060008201518160000160006101000a81548173ffffffffffffffffffffffffffffffffffffffff021916908373ffffffffffffffffffffffffffffffffffffffff1602179055506020820151816001019081620002829190620013f1565b50505062000178565b5050620017dd565b60008260ff1667ffffffffffffffff811115620002b557620002b462000eb5565b5b604051908082528060200260200182016040528015620002e45781602001602082028036833780820191505090505b509050670de0b6b3a76400008160008151811062000307576200030662001177565b5b602002602001018181525050806000815181106200032a576200032962001177565b5b60200260200101518160018151811062000349576200034862001177565b5b6020026020010181815250506000600290505b8360ff168160ff1610156200040657816001826200037b9190620014d8565b60ff168151811062000392576200039162001177565b5b602002602001015182600283620003aa9190620014d8565b60ff1681518110620003c157620003c062001177565b5b6020026020010151620003d5919062001514565b828260ff1681518110620003ee57620003ed62001177565b5b6020026020010181815250508060010190506200035c565b5060018081600181540180825580915050039060005260206000209050506000600190505b8360ff168160ff1611620008de576000600180816001815401808255809150500390600052602060002090600302019050600282866200046c9190620014d8565b6200047891906200157e565b6001620004869190620010f5565b8160010160006101000a81548160ff021916908360ff160217905550828286620004b19190620014d8565b60ff1681518110620004c857620004c762001177565b5b6020026020010151816000018190555060008160010160009054906101000a900460ff1660ff1667ffffffffffffffff8111156200050b576200050a62000eb5565b5b6040519080825280602002602001820160405280156200053a5781602001602082028036833780820191505090505b5090506000600184886200054f9190620014d8565b6200055b9190620010f5565b6002620005699190620015b6565b60ff16905060006064826064620005819190620015fc565b670de0b6b3a764000062000596919062001637565b620005a2919062001682565b90508083600081518110620005bc57620005bb62001177565b5b6020026020010181815250506000600190505b8460010160009054906101000a900460ff1660ff168160ff16101562000689576001816014620006009190620014d8565b6200060c9190620010f5565b60ff16600a85600184620006219190620014d8565b60ff168151811062000638576200063762001177565b5b60200260200101516200064c919062001637565b62000658919062001682565b848260ff168151811062000671576200067062001177565b5b602002602001018181525050806001019050620005cf565b5060005b8460010160009054906101000a900460ff1660ff168160ff161015620008c55760008560020160018160018154018082558091505003906000526020600020906002020190508560000154816000018190555060008260ff161115620008345760005b86600201600184620007039190620014d8565b60ff16815481106200071a576200071962001177565b5b90600052602060002090600202016001018054905081101562000832576000620007da878560ff168151811062000756576200075562001177565b5b6020026020010151670de0b6b3a7640000620007739190620015fc565b89600201600187620007869190620014d8565b60ff16815481106200079d576200079c62001177565b5b90600052602060002090600202016001018481548110620007c357620007c262001177565b5b906000526020600020015462000b1460201b60201c565b9050826001018190806001815401808255809150506001900390600052602060002001600090919091909150556200081d83600001548262000b6c60201b60201c565b836000018190555050806001019050620006f0565b505b60006200086c868460ff168151811062000853576200085262001177565b5b6020026020010151886000015462000b1460201b60201c565b905081600101819080600181540180825580915050600190039060005260206000200160009091909190915055620008af82600001548262000b6c60201b60201c565b826000018190555050508060010190506200068d565b505050505080620008d690620016ba565b90506200042b565b506000600184620008f09190620010f5565b90505b8284620009019190620010f5565b60ff168160ff16101562000a0a57600060018081600181540180825580915050039060005260206000209060030201905060018160010160006101000a81548160ff021916908360ff160217905550600260018084620009629190620014d8565b60ff168154811062000979576200097862001177565b5b90600052602060002090600302016000015462000997919062001682565b8160000181905550600081600201600181600181540180825580915050039060005260206000209060020201905080600101826000015490806001815401808255809150506001900390600052602060002001600090919091909150558262000a0090620016ba565b92505050620008f3565b60018060018362000a1c9190620014d8565b60ff168154811062000a335762000a3262001177565b5b90600052602060002090600302019080600181540180825580915050600190039060005260206000209060030201600090919091909150600082015481600001556001820160009054906101000a900460ff168160010160006101000a81548160ff021916908360ff160217905550600282018160020190805462000aba92919062000d44565b50505050505050565b6000806001816001815401808255809150500390600052602060002001905060018160000160036101000a81548160ff02191690831515021790555062000b108262000b9560201b60201c565b5050565b6000670de0b6b3a764000062000b5862000b35858562000c7160201b60201c565b6002670de0b6b3a764000062000b4c919062001682565b62000ce660201b60201c565b62000b64919062001682565b905092915050565b600081831062000b8a57818362000b849190620015fc565b62000b8d565b60005b905092915050565b60008080549050905060008060018160018154018082558091505003906000526020600020019050818160000160006101000a81548162ffffff021916908362ffffff160217905550438364ffffffffff1660006001850362ffffff168154811062000c065762000c0562001177565b5b9060005260206000200160000160049054906101000a90046fffffffffffffffffffffffffffffffff1601018160000160046101000a8154816fffffffffffffffffffffffffffffffff02191690836fffffffffffffffffffffffffffffffff160217905550505050565b60008082148062000c9e57508282838562000c8d919062001637565b92508262000c9c919062001682565b145b62000ce0576040517f08c379a000000000000000000000000000000000000000000000000000000000815260040162000cd79062001749565b60405180910390fd5b92915050565b600082828462000cf7919062001514565b915081101562000d3e576040517f08c379a000000000000000000000000000000000000000000000000000000000815260040162000d3590620017bb565b60405180910390fd5b92915050565b82805482825590600052602060002090600202810192821562000db15760005260206000209160020282015b8281111562000db057828260008201548160000155600182018160010190805462000d9d92919062000dc4565b5050509160020191906002019062000d70565b5b50905062000dc0919062000e1b565b5090565b82805482825590600052602060002090810192821562000e085760005260206000209182015b8281111562000e0757825482559160010191906001019062000dea565b5b50905062000e17919062000e4e565b5090565b5b8082111562000e4a5760008082016000905560018201600062000e40919062000e6d565b5060020162000e1c565b5090565b5b8082111562000e6957600081600090555060010162000e4f565b5090565b508054600082559060005260206000209081019062000e8d919062000e4e565b50565b6000604051905090565b600080fd5b600080fd5b6000601f19601f8301169050919050565b7f4e487b7100000000000000000000000000000000000000000000000000000000600052604160045260246000fd5b62000eef8262000ea4565b810181811067ffffffffffffffff8211171562000f115762000f1062000eb5565b5b80604052505050565b600062000f2662000e90565b905062000f34828262000ee4565b919050565b600060ff82169050919050565b62000f518162000f39565b811462000f5d57600080fd5b50565b60008151905062000f718162000f46565b92915050565b600063ffffffff82169050919050565b62000f928162000f77565b811462000f9e57600080fd5b50565b60008151905062000fb28162000f87565b92915050565b60006080828403121562000fd15762000fd062000e9f565b5b62000fdd608062000f1a565b9050600062000fef8482850162000f60565b6000830152506020620010058482850162000f60565b60208301525060406200101b8482850162000fa1565b6040830152506060620010318482850162000fa1565b60608301525092915050565b600064ffffffffff82169050919050565b62001059816200103d565b81146200106557600080fd5b50565b60008151905062001079816200104e565b92915050565b60008060a0838503121562001099576200109862000e9a565b5b6000620010a98582860162000fb8565b9250506080620010bc8582860162001068565b9150509250929050565b7f4e487b7100000000000000000000000000000000000000000000000000000000600052601160045260246000fd5b6000620011028262000f39565b91506200110f8362000f39565b9250828201905060ff8111156200112b576200112a620010c6565b5b92915050565b60006200113e8262000f77565b91506200114b8362000f77565b92508282026200115b8162000f77565b915080821462001170576200116f620010c6565b5b5092915050565b7f4e487b7100000000000000000000000000000000000000000000000000000000600052603260045260246000fd5b600081519050919050565b7f4e487b7100000000000000000000000000000000000000000000000000000000600052602260045260246000fd5b60006002820490506001821680620011f957607f821691505b6020821081036200120f576200120e620011b1565b5b50919050565b60008190508160005260206000209050919050565b60006020601f8301049050919050565b600082821b905092915050565b600060088302620012797fffffffffffffffffffffffffffffffffffffffffffffffffffffffffffffffff826200123a565b6200128586836200123a565b95508019841693508086168417925050509392505050565b6000819050919050565b6000819050919050565b6000620012d2620012cc620012c6846200129d565b620012a7565b6200129d565b9050919050565b6000819050919050565b620012ee83620012b1565b62001306620012fd82620012d9565b84845462001247565b825550505050565b600090565b6200131d6200130e565b6200132a818484620012e3565b505050565b5b8181101562001352576200134660008262001313565b60018101905062001330565b5050565b601f821115620013a1576200136b8162001215565b62001376846200122a565b8101602085101562001386578190505b6200139e62001395856200122a565b8301826200132f565b50505b505050565b600082821c905092915050565b6000620013c660001984600802620013a6565b1980831691505092915050565b6000620013e18383620013b3565b9150826002028217905092915050565b620013fc82620011a6565b67ffffffffffffffff81111562001418576200141762000eb5565b5b620014248254620011e0565b6200143182828562001356565b600060209050601f83116001811462001469576000841562001454578287015190505b620014608582620013d3565b865550620014d0565b601f198416620014798662001215565b60005b82811015620014a3578489015182556001820191506020850194506020810190506200147c565b86831015620014c35784890151620014bf601f891682620013b3565b8355505b6001600288020188555050505b505050505050565b6000620014e58262000f39565b9150620014f28362000f39565b9250828203905060ff8111156200150e576200150d620010c6565b5b92915050565b600062001521826200129d565b91506200152e836200129d565b9250828201905080821115620015495762001548620010c6565b5b92915050565b7f4e487b7100000000000000000000000000000000000000000000000000000000600052601260045260246000fd5b60006200158b8262000f39565b9150620015988362000f39565b925082620015ab57620015aa6200154f565b5b828204905092915050565b6000620015c38262000f39565b9150620015d08362000f39565b9250828202620015e08162000f39565b9150808214620015f557620015f4620010c6565b5b5092915050565b600062001609826200129d565b915062001616836200129d565b9250828203905081811115620016315762001630620010c6565b5b92915050565b600062001644826200129d565b915062001651836200129d565b925082820262001661816200129d565b915082820484148315176200167b576200167a620010c6565b5b5092915050565b60006200168f826200129d565b91506200169c836200129d565b925082620016af57620016ae6200154f565b5b828204905092915050565b6000620016c78262000f39565b915060ff8203620016dd57620016dc620010c6565b5b600182019050919050565b600082825260208201905092915050565b7f64732d6d6174682d6d756c2d6f766572666c6f77000000000000000000000000600082015250565b600062001731601483620016e8565b91506200173e82620016f9565b602082019050919050565b60006020820190508181036000830152620017648162001722565b9050919050565b7f64732d6d6174682d6164642d6f766572666c6f77000000000000000000000000600082015250565b6000620017a3601483620016e8565b9150620017b0826200176b565b602082019050919050565b60006020820190508181036000830152620017d68162001794565b9050919050565b6142cc80620017ed6000396000f3fe608060405234801561001057600080fd5b50600436106100cf5760003560e01c8063944c6aae1161008c578063bbcd5bbe11610066578063bbcd5bbe14610265578063c69ef5c514610295578063d204f125146102c5578063facbf93b146102f5576100cf565b8063944c6aae146101d4578063a292451014610205578063a2e4daad14610235576100cf565b806328a14d9e146100d45780633d189c351461010557806379903540146101355780637bf525941461016557806382edaf94146101955780638eb36e3d146101b3575b600080fd5b6100ee60048036038101906100e99190612b26565b610313565b6040516100fc929190612ca9565b60405180910390f35b61011f600480360381019061011a9190612d05565b6106f9565b60405161012c9190612dfa565b60405180910390f35b61014f600480360381019061014a9190612d05565b6107cb565b60405161015c9190612f17565b60405180910390f35b61017f600480360381019061017a9190612f32565b6108f3565b60405161018c9190612f72565b60405180910390f35b61019d610a6b565b6040516101aa9190612fa3565b60405180910390f35b6101bb610a91565b6040516101cb9493929190612fec565b60405180910390f35b6101ee60048036038101906101e9919061305d565b610ae9565b6040516101fc92919061311a565b60405180910390f35b61021f600480360381019061021a9190612d05565b610bc5565b60405161022c919061314a565b60405180910390f35b61024f600480360381019061024a9190613165565b610c20565b60405161025c91906131a1565b60405180910390f35b61027f600480360381019061027a91906131bc565b610dc8565b60405161028c91906131a1565b60405180910390f35b6102af60048036038101906102aa9190613215565b610e6e565b6040516102bc9190613400565b60405180910390f35b6102df60048036038101906102da9190613165565b610f9b565b6040516102ec9190612f17565b60405180910390f35b6102fd6110a9565b60405161030a9190613431565b60405180910390f35b60606000600460009054906101000a900473ffffffffffffffffffffffffffffffffffffffff1673ffffffffffffffffffffffffffffffffffffffff163373ffffffffffffffffffffffffffffffffffffffff16146103a7576040517f08c379a000000000000000000000000000000000000000000000000000000000815260040161039e90613498565b60405180910390fd5b60006103b2846110af565b905060008160000160009054906101000a900462ffffff169050600061041b8a8a8080601f016020809104026020016040519081016040528093929190818152602001838380828437600081840152601f19601f820116905080830192505050505050506112b3565b90508260000160199054906101000a900460ff1660ff16816020015160ff16101561047b576040517f08c379a000000000000000000000000000000000000000000000000000000000815260040161047290613504565b60405180910390fd5b6104858888611507565b6104c4576040517f08c379a00000000000000000000000000000000000000000000000000000000081526004016104bb90613570565b60405180910390fd5b6000806105148a8a8080601f016020809104026020016040519081016040528093929190818152602001838380828437600081840152601f19601f82011690508083019250505050505050611604565b1161052357816000015161054c565b8160000151898960405160200161053c93929190613626565b6040516020818303038152906040525b9050600061058d8560000160049054906101000a90046fffffffffffffffffffffffffffffffff166fffffffffffffffffffffffffffffffff168e8461161e565b90506105998184611654565b600085600001601a9054906101000a900460ff1660ff1603610672576000806001866105c5919061368a565b62ffffff16815481106105db576105da6136c1565b5b9060005260206000200190506106068160000160149054906101000a900464ffffffffff168a611742565b8660000160146101000a81548164ffffffffff021916908364ffffffffff160217905550600015158160000160039054906101000a900460ff1615150361065357610650816117e9565b97505b6003548562ffffff16101561066c5761066b8961197c565b5b5061067d565b61067b88610c20565b505b61068985848f85611a55565b8c73ffffffffffffffffffffffffffffffffffffffff168462ffffff167f9eac94be13a24a127b0433cc70eaa87e760586a5843b19dbde29ca301adfbf338e8e8e8e6040516106db949392919061371d565b60405180910390a38684965096505050505050965096945050505050565b6060600061070683610bc5565b90506000610713846107cb565b905060018260ff168154811061072c5761072b6136c1565b5b906000526020600020906003020160020160018260a0015161074e9190613758565b60ff1681548110610762576107616136c1565b5b90600052602060002090600202016001018054806020026020016040519081016040528092919081815260200182805480156107bd57602002820191906000526020600020905b8154815260200190600101908083116107a9575b505050505092505050919050565b6107d361295e565b60008262ffffff16815481106107ec576107eb6136c1565b5b906000526020600020016040518060c00160405290816000820160009054906101000a900462ffffff1662ffffff1662ffffff1681526020016000820160039054906101000a900460ff161515151581526020016000820160049054906101000a90046fffffffffffffffffffffffffffffffff166fffffffffffffffffffffffffffffffff166fffffffffffffffffffffffffffffffff1681526020016000820160149054906101000a900464ffffffffff1664ffffffffff1664ffffffffff1681526020016000820160199054906101000a900460ff1660ff1660ff16815260200160008201601a9054906101000a900460ff1660ff1660ff16815250509050919050565b6060600460009054906101000a900473ffffffffffffffffffffffffffffffffffffffff1673ffffffffffffffffffffffffffffffffffffffff163373ffffffffffffffffffffffffffffffffffffffff1614610985576040517f08c379a000000000000000000000000000000000000000000000000000000000815260040161097c90613498565b60405180910390fd5b6000808462ffffff168154811061099f5761099e6136c1565b5b906000526020600020019050600015158160000160039054906101000a900460ff1615151480156109ec575060008160000160149054906101000a900464ffffffffff1664ffffffffff16115b8015610a1a57508264ffffffffff168160000160149054906101000a900464ffffffffff1664ffffffffff16105b610a59576040517f08c379a0000000000000000000000000000000000000000000000000000000008152600401610a50906137d9565b60405180910390fd5b610a62816117e9565b91505092915050565b600460009054906101000a900473ffffffffffffffffffffffffffffffffffffffff1681565b60028060000160009054906101000a900460ff16908060000160019054906101000a900460ff16908060000160029054906101000a900463ffffffff16908060000160069054906101000a900463ffffffff16905084565b60058181548110610af957600080fd5b90600052602060002090600202016000915090508060000160009054906101000a900473ffffffffffffffffffffffffffffffffffffffff1690806001018054610b4290613828565b80601f0160208091040260200160405190810160405280929190818152602001828054610b6e90613828565b8015610bbb5780601f10610b9057610100808354040283529160200191610bbb565b820191906000526020600020905b815481529060010190602001808311610b9e57829003601f168201915b5050505050905082565b6000600260000160029054906101000a900463ffffffff166001600260000160029054906101000a900463ffffffff168462ffffff16610c059190613859565b610c0f9190613891565b610c1991906138f8565b9050919050565b6000600460009054906101000a900473ffffffffffffffffffffffffffffffffffffffff1673ffffffffffffffffffffffffffffffffffffffff163373ffffffffffffffffffffffffffffffffffffffff1614610cb2576040517f08c379a0000000000000000000000000000000000000000000000000000000008152600401610ca990613498565b60405180910390fd5b6001610cbd836110af565b60000160009054906101000a900462ffffff16610cda9190613929565b62ffffff1660006001600080549050610cf39190613960565b81548110610d0457610d036136c1565b5b9060005260206000200160000160009054906101000a900462ffffff1662ffffff1603610dbe57438264ffffffffff1601600060016000805490500381548110610d5157610d506136c1565b5b9060005260206000200160000160048282829054906101000a90046fffffffffffffffffffffffffffffffff160192506101000a8154816fffffffffffffffffffffffffffffffff02191690836fffffffffffffffffffffffffffffffff16021790555060019050610dc3565b600090505b919050565b60008073ffffffffffffffffffffffffffffffffffffffff16600460009054906101000a900473ffffffffffffffffffffffffffffffffffffffff1673ffffffffffffffffffffffffffffffffffffffff1614610e2457600080fd5b81600460006101000a81548173ffffffffffffffffffffffffffffffffffffffff021916908373ffffffffffffffffffffffffffffffffffffffff16021790555060019050919050565b610e766129ba565b600060018360ff1681548110610e8f57610e8e6136c1565b5b9060005260206000209060030201604051806060016040529081600082015481526020016001820160009054906101000a900460ff1660ff1660ff16815260200160028201805480602002602001604051908101604052809291908181526020016000905b82821015610f8857838290600052602060002090600202016040518060400160405290816000820154815260200160018201805480602002602001604051908101604052809291908181526020018280548015610f7057602002820191906000526020600020905b815481526020019060010190808311610f5c575b50505050508152505081526020019060010190610ef4565b5050505081525050905080915050919050565b610fa361295e565b610fac826110af565b6040518060c00160405290816000820160009054906101000a900462ffffff1662ffffff1662ffffff1681526020016000820160039054906101000a900460ff161515151581526020016000820160049054906101000a90046fffffffffffffffffffffffffffffffff166fffffffffffffffffffffffffffffffff166fffffffffffffffffffffffffffffffff1681526020016000820160149054906101000a900464ffffffffff1664ffffffffff1664ffffffffff1681526020016000820160199054906101000a900460ff1660ff1660ff16815260200160008201601a9054906101000a900460ff1660ff1660ff16815250509050919050565b60035481565b60008060008054905090508264ffffffffff1660006002836110d19190613960565b815481106110e2576110e16136c1565b5b9060005260206000200160000160149054906101000a900464ffffffffff1664ffffffffff161015801561115457506000151560006002836111249190613960565b81548110611135576111346136c1565b5b9060005260206000200160000160039054906101000a900460ff161515145b1561118b5760006002826111689190613960565b81548110611179576111786136c1565b5b906000526020600020019150506112ae565b60008060018361119b9190613960565b815481106111ac576111ab6136c1565b5b9060005260206000200160000160149054906101000a900464ffffffffff16905060008164ffffffffff16148061123b57508364ffffffffff168164ffffffffff161015801561123a575060001515600060018461120a9190613960565b8154811061121b5761121a6136c1565b5b9060005260206000200160000160039054906101000a900460ff161515145b5b1561127357600060018361124f9190613960565b815481106112605761125f6136c1565b5b90600052602060002001925050506112ae565b6040517f08c379a00000000000000000000000000000000000000000000000000000000081526004016112a5906139e0565b60405180910390fd5b919050565b6112bb6129de565b6112c482611e1a565b611303576040517f08c379a00000000000000000000000000000000000000000000000000000000081526004016112fa90613a4c565b60405180910390fd5b600061130e83611f6d565b905060006113506040518060400160405280600181526020017f2d00000000000000000000000000000000000000000000000000000000000000815250611f6d565b9050600060016113698385611f9b90919063ffffffff16565b6113739190613a6c565b67ffffffffffffffff81111561138c5761138b613aa0565b5b6040519080825280602002602001820160405280156113c557816020015b6113b2612a02565b8152602001906001900390816113aa5790505b5090506000805b82518110156114a8576113e8848661204390919063ffffffff16565b8382815181106113fb576113fa6136c1565b5b6020026020010181905250600161142b84838151811061141e5761141d6136c1565b5b602002602001015161205d565b1161146b576040517f08c379a000000000000000000000000000000000000000000000000000000000815260040161146290613b1b565b60405180910390fd5b61148e838281518110611481576114806136c1565b5b602002602001015161205d565b826114999190613a6c565b915080806001019150506113cc565b5060006114d5836114c760405180602001604052806000815250611f6d565b61216c90919063ffffffff16565b9050600060405180606001604052808381526020018460ff168152602001858152509050809650505050505050919050565b60008083838080601f016020809104026020016040519081016040528093929190818152602001838380828437600081840152601f19601f82011690508083019250505050505050905060005b81518110156115f7576000828281518110611572576115716136c1565b5b602001015160f81c60f81b9050602060f81b817effffffffffffffffffffffffffffffffffffffffffffffffffffffffffffff191610806115d85750607d60f81b817effffffffffffffffffffffffffffffffffffffffffffffffffffffffffffff1916115b156115e957600093505050506115fe565b508080600101915050611554565b5060019150505b92915050565b600061161761161283611f6d565b61205d565b9050919050565b600083838360405160200161163593929190613ba4565b6040516020818303038152906040528051906020012090509392505050565b600061166c6116678460001c6020612323565b611f6d565b905060005b82604001515181101561173c576116af83604001518281518110611698576116976136c1565b5b60200260200101518361256990919063ffffffff16565b50600015156116bd836125cd565b1515146116ff576040517f08c379a00000000000000000000000000000000000000000000000000000000081526004016116f690613c29565b60405180910390fd5b61173083604001518281518110611719576117186136c1565b5b6020026020010151836125dd90919063ffffffff16565b50806001019050611671565b50505050565b6000600260000160069054906101000a900463ffffffff1663ffffffff16600260000160069054906101000a900463ffffffff1663ffffffff1684846117889190613c49565b6117929190613c82565b61179c9190613cb3565b836117a79190613cf0565b92508164ffffffffff168364ffffffffff1610156117e057600260000160069054906101000a900463ffffffff1663ffffffff16830192505b82905092915050565b606060018260000160036101000a81548160ff021916908315150217905550600082600001601a9054906101000a900460ff1660ff1667ffffffffffffffff81111561183857611837613aa0565b5b6040519080825280602002602001820160405280156118665781602001602082028036833780820191505090505b50905060005b81518160ff1610156119225760058160ff168154811061188f5761188e6136c1565b5b906000526020600020906002020160000160009054906101000a900473ffffffffffffffffffffffffffffffffffffffff16828260ff16815181106118d7576118d66136c1565b5b602002602001019073ffffffffffffffffffffffffffffffffffffffff16908173ffffffffffffffffffffffffffffffffffffffff16815250508061191b90613d29565b905061186c565b508260000160009054906101000a900462ffffff1662ffffff167f43f48764203dc308ca6109043842991d6428508bcac086fa880754454949787b8260405161196b9190612f72565b60405180910390a280915050919050565b60008080549050905060008060018160018154018082558091505003906000526020600020019050818160000160006101000a81548162ffffff021916908362ffffff160217905550438364ffffffffff1660006001850362ffffff16815481106119ea576119e96136c1565b5b9060005260206000200160000160049054906101000a90046fffffffffffffffffffffffffffffffff1601018160000160046101000a8154816fffffffffffffffffffffffffffffffff02191690836fffffffffffffffffffffffffffffffff160217905550505050565b8360000160199054906101000a900460ff1660ff16836020015160ff161115611abc5782602001518460000160196101000a81548160ff021916908360ff160217905550600184600001601a6101000a81548160ff021916908360ff160217905550611d47565b6000611ada8560000160009054906101000a900462ffffff16610bc5565b905060018160ff1681548110611af357611af26136c1565b5b906000526020600020906003020160010160009054906101000a900460ff1660ff1685600001601a9054906101000a900460ff1660ff1610611b6a576040517f08c379a0000000000000000000000000000000000000000000000000000000008152600401611b6190613504565b60405180910390fd5b60005b85600001601a9054906101000a900460ff1660ff168160ff161015611d10578373ffffffffffffffffffffffffffffffffffffffff1660058260ff1681548110611bba57611bb96136c1565b5b906000526020600020906002020160000160009054906101000a900473ffffffffffffffffffffffffffffffffffffffff1673ffffffffffffffffffffffffffffffffffffffff16148015611cc55750611cc460058260ff1681548110611c2457611c236136c1565b5b90600052602060002090600202016001018054611c4090613828565b80601f0160208091040260200160405190810160405280929190818152602001828054611c6c90613828565b8015611cb95780601f10611c8e57610100808354040283529160200191611cb9565b820191906000526020600020905b815481529060010190602001808311611c9c57829003601f168201915b505050505084612677565b5b15611d05576040517f08c379a0000000000000000000000000000000000000000000000000000000008152600401611cfc90613d9e565b60405180910390fd5b806001019050611b6d565b5084600001601a81819054906101000a900460ff168092919060010191906101000a81548160ff021916908360ff16021790555050505b60405180604001604052808373ffffffffffffffffffffffffffffffffffffffff168152602001828152506005600186600001601a9054906101000a900460ff16611d929190613758565b60ff1681548110611da657611da56136c1565b5b906000526020600020906002020160008201518160000160006101000a81548173ffffffffffffffffffffffffffffffffffffffff021916908373ffffffffffffffffffffffffffffffffffffffff1602179055506020820151816001019081611e109190613f6a565b5090505050505050565b60008082905060005b8151811015611f61576000828281518110611e4157611e406136c1565b5b602001015160f81c60f81b9050603060f81b817effffffffffffffffffffffffffffffffffffffffffffffffffffffffffffff191610158015611eaa5750603960f81b817effffffffffffffffffffffffffffffffffffffffffffffffffffffffffffff191611155b158015611f105750606160f81b817effffffffffffffffffffffffffffffffffffffffffffffffffffffffffffff191610158015611f0e5750606660f81b817effffffffffffffffffffffffffffffffffffffffffffffffffffffffffffff191611155b155b8015611f425750602d60f81b817effffffffffffffffffffffffffffffffffffffffffffffffffffffffffffff191614155b15611f535760009350505050611f68565b508080600101915050611e23565b5060019150505b919050565b611f75612a02565b600060208301905060405180604001604052808451815260200182815250915050919050565b6000808260000151611fbf856000015186602001518660000151876020015161269f565b611fc99190613a6c565b90505b83600001518460200151611fe09190613a6c565b811161203c578180611ff19061403c565b925050826000015161202b85602001518361200c9190613960565b866000015161201b9190613960565b838660000151876020015161269f565b6120359190613a6c565b9050611fcc565b5092915050565b61204b612a02565b6120568383836127e8565b5092915050565b600080601f83602001516120719190613960565b905060008360000151826120859190613a6c565b9050600092505b8082101561216557600060ff835116905060808160ff1610156120bd576001836120b69190613a6c565b9250612151565b60e08160ff1610156120dd576002836120d69190613a6c565b9250612150565b60f08160ff1610156120fd576003836120f69190613a6c565b925061214f565b60f88160ff16101561211d576004836121169190613a6c565b925061214e565b60fc8160ff16101561213d576005836121369190613a6c565b925061214d565b60068361214a9190613a6c565b92505b5b5b5b5b50828061215d9061403c565b93505061208c565b5050919050565b6060600082510361218e5760405180602001604052806000815250905061231d565b60006001835161219e9190613960565b84600001516121ad9190614084565b905060005b83518110156121f4578381815181106121ce576121cd6136c1565b5b602002602001015160000151826121e59190613a6c565b915080806001019150506121b2565b5060008167ffffffffffffffff81111561221157612210613aa0565b5b6040519080825280601f01601f1916602001820160405280156122435781602001600182028036833780820191505090505b509050600060208201905060005b8551811015612315576122a182878381518110612271576122706136c1565b5b6020026020010151602001518884815181106122905761228f6136c1565b5b6020026020010151600001516128b2565b8581815181106122b4576122b36136c1565b5b602002602001015160000151826122cb9190613a6c565b9150600186516122db9190613960565b811015612308576122f582886020015189600001516128b2565b8660000151826123059190613a6c565b91505b8080600101915050612251565b508193505050505b92915050565b606060008390506000600284600261233b9190614084565b6123459190613a6c565b67ffffffffffffffff81111561235e5761235d613aa0565b5b6040519080825280601f01601f1916602001820160405280156123905781602001600182028036833780820191505090505b5090507f3000000000000000000000000000000000000000000000000000000000000000816000815181106123c8576123c76136c1565b5b60200101907effffffffffffffffffffffffffffffffffffffffffffffffffffffffffffff1916908160001a9053507f78000000000000000000000000000000000000000000000000000000000000008160018151811061242c5761242b6136c1565b5b60200101907effffffffffffffffffffffffffffffffffffffffffffffffffffffffffffff1916908160001a9053506000600185600261246c9190614084565b6124769190613a6c565b90505b6001811115612516577f3031323334353637383961626364656600000000000000000000000000000000600f8416601081106124b8576124b76136c1565b5b1a60f81b8282815181106124cf576124ce6136c1565b5b60200101907effffffffffffffffffffffffffffffffffffffffffffffffffffffffffffff1916908160001a905350600483901c92508061250f906140c6565b9050612479565b506000821461255e5784846040517fe22e27eb0000000000000000000000000000000000000000000000000000000081526004016125559291906140ef565b60405180910390fd5b809250505092915050565b612571612a02565b600061258f846000015185602001518560000151866020015161269f565b90508360200151816125a19190613960565b846000018181516125b29190613960565b91508181525050808460200181815250508391505092915050565b6000808260000151149050919050565b6125e5612a02565b8160000151836000015110156125fd57829050612671565b600060019050826020015184602001511461262b578251602085015160208501518281208383201493505050505b801561266c578260000151846000018181516126479190613960565b915081815250508260000151846020018181516126649190613a6c565b915081815250505b839150505b92915050565b600081518351148015612697575081805190602001208380519060200120145b905092915050565b60008084905060008685116127cf5760208511612772576000808611156126f85760018660206126cf9190613960565b60086126db9190614084565b60026126e7919061424b565b6126f19190613960565b1960001b90505b60008186511690506000878a8a61270f9190613a6c565b6127199190613960565b905060008386511690505b8281146127645781861061274b578a8a61273e9190613a6c565b96505050505050506127e0565b85806127569061403c565b965050838651169050612724565b8596505050505050506127e0565b60008585209050600091505b858861278a9190613960565b82116127cd57600086842090508082036127aa57839450505050506127e0565b6001846127b79190613a6c565b93505081806127c59061403c565b92505061277e565b505b86866127db9190613a6c565b925050505b949350505050565b6127f0612a02565b600061280e856000015186602001518660000151876020015161269f565b9050846020015183602001818152505084602001518161282e9190613960565b8360000181815250508460000151856020015161284b9190613a6c565b81036128615760008560000181815250506128a7565b836000015183600001516128759190613a6c565b856000018181516128869190613960565b9150818152505083600001518161289d9190613a6c565b8560200181815250505b829150509392505050565b5b602081106128f157815183526020836128cc9190613a6c565b92506020826128db9190613a6c565b91506020816128ea9190613960565b90506128b3565b60007fffffffffffffffffffffffffffffffffffffffffffffffffffffffffffffffff9050600082111561294857600182602061292e9190613960565b61010061293b919061424b565b6129459190613960565b90505b8019835116818551168181178652505050505050565b6040518060c00160405280600062ffffff16815260200160001515815260200160006fffffffffffffffffffffffffffffffff168152602001600064ffffffffff168152602001600060ff168152602001600060ff1681525090565b604051806060016040528060008152602001600060ff168152602001606081525090565b604051806060016040528060608152602001600060ff168152602001606081525090565b604051806040016040528060008152602001600081525090565b600080fd5b600080fd5b600073ffffffffffffffffffffffffffffffffffffffff82169050919050565b6000612a5182612a26565b9050919050565b612a6181612a46565b8114612a6c57600080fd5b50565b600081359050612a7e81612a58565b92915050565b600080fd5b600080fd5b600080fd5b60008083601f840112612aa957612aa8612a84565b5b8235905067ffffffffffffffff811115612ac657612ac5612a89565b5b602083019150836001820283011115612ae257612ae1612a8e565b5b9250929050565b600064ffffffffff82169050919050565b612b0381612ae9565b8114612b0e57600080fd5b50565b600081359050612b2081612afa565b92915050565b60008060008060008060808789031215612b4357612b42612a1c565b5b6000612b5189828a01612a6f565b965050602087013567ffffffffffffffff811115612b7257612b71612a21565b5b612b7e89828a01612a93565b9550955050604087013567ffffffffffffffff811115612ba157612ba0612a21565b5b612bad89828a01612a93565b93509350506060612bc089828a01612b11565b9150509295509295509295565b600081519050919050565b600082825260208201905092915050565b6000819050602082019050919050565b612c0281612a46565b82525050565b6000612c148383612bf9565b60208301905092915050565b6000602082019050919050565b6000612c3882612bcd565b612c428185612bd8565b9350612c4d83612be9565b8060005b83811015612c7e578151612c658882612c08565b9750612c7083612c20565b925050600181019050612c51565b5085935050505092915050565b600062ffffff82169050919050565b612ca381612c8b565b82525050565b60006040820190508181036000830152612cc38185612c2d565b9050612cd26020830184612c9a565b9392505050565b612ce281612c8b565b8114612ced57600080fd5b50565b600081359050612cff81612cd9565b92915050565b600060208284031215612d1b57612d1a612a1c565b5b6000612d2984828501612cf0565b91505092915050565b600081519050919050565b600082825260208201905092915050565b6000819050602082019050919050565b6000819050919050565b612d7181612d5e565b82525050565b6000612d838383612d68565b60208301905092915050565b6000602082019050919050565b6000612da782612d32565b612db18185612d3d565b9350612dbc83612d4e565b8060005b83811015612ded578151612dd48882612d77565b9750612ddf83612d8f565b925050600181019050612dc0565b5085935050505092915050565b60006020820190508181036000830152612e148184612d9c565b905092915050565b612e2581612c8b565b82525050565b60008115159050919050565b612e4081612e2b565b82525050565b60006fffffffffffffffffffffffffffffffff82169050919050565b612e6b81612e46565b82525050565b612e7a81612ae9565b82525050565b600060ff82169050919050565b612e9681612e80565b82525050565b60c082016000820151612eb26000850182612e1c565b506020820151612ec56020850182612e37565b506040820151612ed86040850182612e62565b506060820151612eeb6060850182612e71565b506080820151612efe6080850182612e8d565b5060a0820151612f1160a0850182612e8d565b50505050565b600060c082019050612f2c6000830184612e9c565b92915050565b60008060408385031215612f4957612f48612a1c565b5b6000612f5785828601612cf0565b9250506020612f6885828601612b11565b9150509250929050565b60006020820190508181036000830152612f8c8184612c2d565b905092915050565b612f9d81612a46565b82525050565b6000602082019050612fb86000830184612f94565b92915050565b612fc781612e80565b82525050565b600063ffffffff82169050919050565b612fe681612fcd565b82525050565b60006080820190506130016000830187612fbe565b61300e6020830186612fbe565b61301b6040830185612fdd565b6130286060830184612fdd565b95945050505050565b61303a81612d5e565b811461304557600080fd5b50565b60008135905061305781613031565b92915050565b60006020828403121561307357613072612a1c565b5b600061308184828501613048565b91505092915050565b600081519050919050565b600082825260208201905092915050565b60005b838110156130c45780820151818401526020810190506130a9565b60008484015250505050565b6000601f19601f8301169050919050565b60006130ec8261308a565b6130f68185613095565b93506131068185602086016130a6565b61310f816130d0565b840191505092915050565b600060408201905061312f6000830185612f94565b818103602083015261314181846130e1565b90509392505050565b600060208201905061315f6000830184612fbe565b92915050565b60006020828403121561317b5761317a612a1c565b5b600061318984828501612b11565b91505092915050565b61319b81612e2b565b82525050565b60006020820190506131b66000830184613192565b92915050565b6000602082840312156131d2576131d1612a1c565b5b60006131e084828501612a6f565b91505092915050565b6131f281612e80565b81146131fd57600080fd5b50565b60008135905061320f816131e9565b92915050565b60006020828403121561322b5761322a612a1c565b5b600061323984828501613200565b91505092915050565b600081519050919050565b600082825260208201905092915050565b6000819050602082019050919050565b600082825260208201905092915050565b600061328a82612d32565b613294818561326e565b935061329f83612d4e565b8060005b838110156132d05781516132b78882612d77565b97506132c283612d8f565b9250506001810190506132a3565b5085935050505092915050565b60006040830160008301516132f56000860182612d68565b506020830151848203602086015261330d828261327f565b9150508091505092915050565b600061332683836132dd565b905092915050565b6000602082019050919050565b600061334682613242565b613350818561324d565b9350836020820285016133628561325e565b8060005b8581101561339e578484038952815161337f858261331a565b945061338a8361332e565b925060208a01995050600181019050613366565b50829750879550505050505092915050565b60006060830160008301516133c86000860182612d68565b5060208301516133db6020860182612e8d565b50604083015184820360408601526133f3828261333b565b9150508091505092915050565b6000602082019050818103600083015261341a81846133b0565b905092915050565b61342b81612d5e565b82525050565b60006020820190506134466000830184613422565b92915050565b7f4f4e4c595f544f4b454e5f434f4e545241435400000000000000000000000000600082015250565b6000613482601383613095565b915061348d8261344c565b602082019050919050565b600060208201905081810360008301526134b181613475565b9050919050565b7f444946464943554c54595f4c4f57000000000000000000000000000000000000600082015250565b60006134ee600e83613095565b91506134f9826134b8565b602082019050919050565b6000602082019050818103600083015261351d816134e1565b9050919050565b7f494e56414c49445f53414c540000000000000000000000000000000000000000600082015250565b600061355a600c83613095565b915061356582613524565b602082019050919050565b600060208201905081810360008301526135898161354d565b9050919050565b600081905092915050565b60006135a68261308a565b6135b08185613590565b93506135c08185602086016130a6565b80840191505092915050565b7f7e00000000000000000000000000000000000000000000000000000000000000815250565b82818337600083830152505050565b600061360d8385613590565b935061361a8385846135f2565b82840190509392505050565b6000613632828661359b565b915061363d826135cc565b60018201915061364e828486613601565b9150819050949350505050565b7f4e487b7100000000000000000000000000000000000000000000000000000000600052601160045260246000fd5b600061369582612c8b565b91506136a083612c8b565b9250828203905062ffffff8111156136bb576136ba61365b565b5b92915050565b7f4e487b7100000000000000000000000000000000000000000000000000000000600052603260045260246000fd5b60006136fc8385613095565b93506137098385846135f2565b613712836130d0565b840190509392505050565b600060408201905081810360008301526137388186886136f0565b9050818103602083015261374d8184866136f0565b905095945050505050565b600061376382612e80565b915061376e83612e80565b9250828203905060ff8111156137875761378661365b565b5b92915050565b7f5345414c5f4552524f5200000000000000000000000000000000000000000000600082015250565b60006137c3600a83613095565b91506137ce8261378d565b602082019050919050565b600060208201905081810360008301526137f2816137b6565b9050919050565b7f4e487b7100000000000000000000000000000000000000000000000000000000600052602260045260246000fd5b6000600282049050600182168061384057607f821691505b602082108103613853576138526137f9565b5b50919050565b600061386482612fcd565b915061386f83612fcd565b9250828201905063ffffffff81111561388b5761388a61365b565b5b92915050565b600061389c82612fcd565b91506138a783612fcd565b9250828203905063ffffffff8111156138c3576138c261365b565b5b92915050565b7f4e487b7100000000000000000000000000000000000000000000000000000000600052601260045260246000fd5b600061390382612fcd565b915061390e83612fcd565b92508261391e5761391d6138c9565b5b828204905092915050565b600061393482612c8b565b915061393f83612c8b565b9250828201905062ffffff81111561395a5761395961365b565b5b92915050565b600061396b82612d5e565b915061397683612d5e565b925082820390508181111561398e5761398d61365b565b5b92915050565b7f4e4f5f43555252454e545f424c4f434b00000000000000000000000000000000600082015250565b60006139ca601083613095565b91506139d582613994565b602082019050919050565b600060208201905081810360008301526139f9816139bd565b9050919050565b7f4b45595f554e414c4c4f5745445f434841520000000000000000000000000000600082015250565b6000613a36601283613095565b9150613a4182613a00565b602082019050919050565b60006020820190508181036000830152613a6581613a29565b9050919050565b6000613a7782612d5e565b9150613a8283612d5e565b9250828201905080821115613a9a57613a9961365b565b5b92915050565b7f4e487b7100000000000000000000000000000000000000000000000000000000600052604160045260246000fd5b7f5355424b45595f4d494e5f4c454e475448000000000000000000000000000000600082015250565b6000613b05601183613095565b9150613b1082613acf565b602082019050919050565b60006020820190508181036000830152613b3481613af8565b9050919050565b6000819050919050565b613b56613b5182612d5e565b613b3b565b82525050565b60008160601b9050919050565b6000613b7482613b5c565b9050919050565b6000613b8682613b69565b9050919050565b613b9e613b9982612a46565b613b7b565b82525050565b6000613bb08286613b45565b602082019150613bc08285613b8d565b601482019150613bd0828461359b565b9150819050949350505050565b7f4241445f4b455900000000000000000000000000000000000000000000000000600082015250565b6000613c13600783613095565b9150613c1e82613bdd565b602082019050919050565b60006020820190508181036000830152613c4281613c06565b9050919050565b6000613c5482612ae9565b9150613c5f83612ae9565b9250828203905064ffffffffff811115613c7c57613c7b61365b565b5b92915050565b6000613c8d82612ae9565b9150613c9883612ae9565b925082613ca857613ca76138c9565b5b828204905092915050565b6000613cbe82612ae9565b9150613cc983612ae9565b9250828202613cd781612ae9565b9150808214613ce957613ce861365b565b5b5092915050565b6000613cfb82612ae9565b9150613d0683612ae9565b9250828201905064ffffffffff811115613d2357613d2261365b565b5b92915050565b6000613d3482612e80565b915060ff8203613d4757613d4661365b565b5b600182019050919050565b7f4455504c49434154455f454e5452590000000000000000000000000000000000600082015250565b6000613d88600f83613095565b9150613d9382613d52565b602082019050919050565b60006020820190508181036000830152613db781613d7b565b9050919050565b60008190508160005260206000209050919050565b60006020601f8301049050919050565b600082821b905092915050565b600060088302613e207fffffffffffffffffffffffffffffffffffffffffffffffffffffffffffffffff82613de3565b613e2a8683613de3565b95508019841693508086168417925050509392505050565b6000819050919050565b6000613e67613e62613e5d84612d5e565b613e42565b612d5e565b9050919050565b6000819050919050565b613e8183613e4c565b613e95613e8d82613e6e565b848454613df0565b825550505050565b600090565b613eaa613e9d565b613eb5818484613e78565b505050565b5b81811015613ed957613ece600082613ea2565b600181019050613ebb565b5050565b601f821115613f1e57613eef81613dbe565b613ef884613dd3565b81016020851015613f07578190505b613f1b613f1385613dd3565b830182613eba565b50505b505050565b600082821c905092915050565b6000613f4160001984600802613f23565b1980831691505092915050565b6000613f5a8383613f30565b9150826002028217905092915050565b613f738261308a565b67ffffffffffffffff811115613f8c57613f8b613aa0565b5b613f968254613828565b613fa1828285613edd565b600060209050601f831160018114613fd45760008415613fc2578287015190505b613fcc8582613f4e565b865550614034565b601f198416613fe286613dbe565b60005b8281101561400a57848901518255600182019150602085019450602081019050613fe5565b868310156140275784890151614023601f891682613f30565b8355505b6001600288020188555050505b505050505050565b600061404782612d5e565b91507fffffffffffffffffffffffffffffffffffffffffffffffffffffffffffffffff82036140795761407861365b565b5b600182019050919050565b600061408f82612d5e565b915061409a83612d5e565b92508282026140a881612d5e565b915082820484148315176140bf576140be61365b565b5b5092915050565b60006140d182612d5e565b9150600082036140e4576140e361365b565b5b600182039050919050565b60006040820190506141046000830185613422565b6141116020830184613422565b9392505050565b60008160011c9050919050565b6000808291508390505b600185111561416f5780860481111561414b5761414a61365b565b5b600185161561415a5780820291505b808102905061416885614118565b945061412f565b94509492505050565b6000826141885760019050614244565b816141965760009050614244565b81600181146141ac57600281146141b6576141e5565b6001915050614244565b60ff8411156141c8576141c761365b565b5b8360020a9150848211156141df576141de61365b565b5b50614244565b5060208310610133831016604e8410600b841016171561421a5782820a9050838111156142155761421461365b565b5b614244565b6142278484846001614125565b9250905081840481111561423e5761423d61365b565b5b81810290505b9392505050565b600061425682612d5e565b915061426183612d5e565b925061428e7fffffffffffffffffffffffffffffffffffffffffffffffffffffffffffffffff8484614178565b90509291505056fea2646970667358221220e03a92f5923b957010965eb78072071c1189f50e13f851061b9358b80539dff564736f6c63430008180033",
  "linkReferences": {},
  "deployedLinkReferences": {}
}