{
  "_format": "hh-sol-artifact-1",
  "contractName": "Staking",
  "sourceName": "contracts/flattened/Staking.sol",
  "abi": [
    {
      "inputs": [],
      "stateMutability": "nonpayable",
      "type": "constructor"
    },
    {
      "anonymous": false,
      "inputs": [
        {
          "indexed": true,
          "internalType": "uint256",
          "name": "id",
          "type": "uint256"
        },
        {
          "indexed": true,
          "internalType": "address",
          "name": "addr",
          "type": "address"
        }
      ],
      "name": "Staked",
      "type": "event"
    },
    {
      "inputs": [
        {
          "internalType": "uint256",
          "name": "p_amount",
          "type": "uint256"
        },
        {
          "internalType": "uint256",
          "name": "p_period",
          "type": "uint256"
        },
        {
          "internalType": "bool",
          "name": "p_upfront",
          "type": "bool"
        },
        {
          "internalType": "uint256",
          "name": "p_cliff",
          "type": "uint256"
        },
        {
          "internalType": "uint256",
          "name": "p_stakeFundsAvailable",
          "type": "uint256"
        },
        {
          "internalType": "uint40",
          "name": "p_timestamp",
          "type": "uint40"
        }
      ],
      "name": "getInterestAmount",
      "outputs": [
        {
          "internalType": "uint256",
          "name": "",
          "type": "uint256"
        },
        {
          "components": [
            {
              "internalType": "uint128",
              "name": "baseAmount",
              "type": "uint128"
            },
            {
              "internalType": "uint48",
              "name": "timestamp",
              "type": "uint48"
            }
          ],
          "internalType": "struct IStaking.stakingdata",
          "name": "",
          "type": "tuple"
        }
      ],
      "stateMutability": "view",
      "type": "function"
    },
    {
      "inputs": [
        {
          "internalType": "uint256",
          "name": "id",
          "type": "uint256"
        }
      ],
      "name": "getStake",
      "outputs": [
        {
          "components": [
            {
              "internalType": "uint40",
              "name": "start",
              "type": "uint40"
            },
            {
              "internalType": "uint32",
              "name": "duration",
              "type": "uint32"
            },
            {
              "internalType": "uint88",
              "name": "amount",
              "type": "uint88"
            },
            {
              "internalType": "uint80",
              "name": "interestAmount",
              "type": "uint80"
            },
            {
              "internalType": "uint16",
              "name": "p",
              "type": "uint16"
            }
          ],
          "internalType": "struct IStaking.stakedata",
          "name": "",
          "type": "tuple"
        }
      ],
      "stateMutability": "view",
      "type": "function"
    },
    {
      "inputs": [
        {
          "internalType": "address",
          "name": "p_address",
          "type": "address"
        }
      ],
      "name": "getStakingsIds",
      "outputs": [
        {
          "internalType": "uint256[]",
          "name": "",
          "type": "uint256[]"
        }
      ],
      "stateMutability": "view",
      "type": "function"
    },
    {
      "inputs": [
        {
          "internalType": "address",
          "name": "p_tokenContractAddress",
          "type": "address"
        }
      ],
      "name": "setTokenContract",
      "outputs": [
        {
          "internalType": "bool",
          "name": "",
          "type": "bool"
        }
      ],
      "stateMutability": "nonpayable",
      "type": "function"
    },
    {
      "inputs": [
        {
          "internalType": "address",
          "name": "p_adr",
          "type": "address"
        },
        {
          "internalType": "uint88",
          "name": "p_amount",
          "type": "uint88"
        },
        {
          "internalType": "uint80",
          "name": "p_interestAmount",
          "type": "uint80"
        },
        {
          "internalType": "uint40",
          "name": "p_start",
          "type": "uint40"
        },
        {
          "internalType": "uint32",
          "name": "p_duration",
          "type": "uint32"
        }
      ],
      "name": "stake",
      "outputs": [
        {
          "internalType": "uint256",
          "name": "",
          "type": "uint256"
        }
      ],
      "stateMutability": "nonpayable",
      "type": "function"
    },
    {
      "inputs": [],
      "name": "stakeIndex",
      "outputs": [
        {
          "internalType": "uint256",
          "name": "",
          "type": "uint256"
        }
      ],
      "stateMutability": "view",
      "type": "function"
    },
    {
      "inputs": [],
      "name": "stakingData",
      "outputs": [
        {
          "internalType": "uint128",
          "name": "baseAmount",
          "type": "uint128"
        },
        {
          "internalType": "uint48",
          "name": "timestamp",
          "type": "uint48"
        }
      ],
      "stateMutability": "view",
      "type": "function"
    },
    {
      "inputs": [],
      "name": "tokenContractAddress",
      "outputs": [
        {
          "internalType": "address",
          "name": "",
          "type": "address"
        }
      ],
      "stateMutability": "view",
      "type": "function"
    },
    {
      "inputs": [
        {
          "components": [
            {
              "internalType": "uint128",
              "name": "baseAmount",
              "type": "uint128"
            },
            {
              "internalType": "uint48",
              "name": "timestamp",
              "type": "uint48"
            }
          ],
          "internalType": "struct IStaking.stakingdata",
          "name": "p_stakingData",
          "type": "tuple"
        }
      ],
      "name": "updateStakingData",
      "outputs": [],
      "stateMutability": "nonpayable",
      "type": "function"
    },
    {
      "inputs": [
        {
          "internalType": "address",
          "name": "p_address",
          "type": "address"
        },
        {
          "internalType": "uint256[]",
          "name": "p_indexes",
          "type": "uint256[]"
        },
        {
          "internalType": "uint40",
          "name": "p_timestamp",
          "type": "uint40"
        }
      ],
      "name": "withdraw",
      "outputs": [
        {
          "internalType": "uint256",
          "name": "",
          "type": "uint256"
        },
        {
          "internalType": "uint256",
          "name": "",
          "type": "uint256"
        }
      ],
      "stateMutability": "nonpayable",
      "type": "function"
    }
  ],
  "bytecode": "0x608060405260006001553480156200001657600080fd5b50670de0b6b3a764000061452f6200002f9190620000d1565b600260000160006101000a8154816fffffffffffffffffffffffffffffffff02191690836fffffffffffffffffffffffffffffffff16021790555042600260000160106101000a81548165ffffffffffff021916908365ffffffffffff1602179055506200011c565b6000819050919050565b7f4e487b7100000000000000000000000000000000000000000000000000000000600052601160045260246000fd5b6000620000de8262000098565b9150620000eb8362000098565b9250828202620000fb8162000098565b91508282048414831517620001155762000114620000a2565b5b5092915050565b6123e2806200012c6000396000f3fe608060405234801561001057600080fd5b506004361061009e5760003560e01c806382edaf941161006657806382edaf9414610170578063941d82d61461018e578063bbcd5bbe146101ac578063bd657931146101dc578063ce325bf81461020c5761009e565b806311290bac146100a35780631a0d47f7146100c25780632b8fbe8f146100de5780633d0d607b1461010f5780636383274e14610140575b600080fd5b6100ab61023c565b6040516100b99291906116d9565b60405180910390f35b6100dc60048036038101906100d7919061184f565b61027c565b005b6100f860048036038101906100f39190611927565b61037d565b604051610106929190611a10565b60405180910390f35b61012960048036038101906101249190611b64565b610429565b604051610137929190611bd3565b60405180910390f35b61015a60048036038101906101559190611cbd565b6107dc565b6040516101679190611d38565b60405180910390f35b610178610a58565b6040516101859190611d62565b60405180910390f35b610196610a7c565b6040516101a39190611d38565b60405180910390f35b6101c660048036038101906101c19190611d7d565b610a82565b6040516101d39190611db9565b60405180910390f35b6101f660048036038101906101f19190611d7d565b610b25565b6040516102039190611e92565b60405180910390f35b61022660048036038101906102219190611eb4565b610bbc565b6040516102339190611fa2565b60405180910390f35b60028060000160009054906101000a90046fffffffffffffffffffffffffffffffff16908060000160109054906101000a900465ffffffffffff16905082565b60008054906101000a900473ffffffffffffffffffffffffffffffffffffffff1673ffffffffffffffffffffffffffffffffffffffff163373ffffffffffffffffffffffffffffffffffffffff161461030a576040517f08c379a00000000000000000000000000000000000000000000000000000000081526004016103019061201a565b60405180910390fd5b80600260008201518160000160006101000a8154816fffffffffffffffffffffffffffffffff02191690836fffffffffffffffffffffffffffffffff16021790555060208201518160000160106101000a81548165ffffffffffff021916908365ffffffffffff16021790555090505050565b6000610387611600565b6000806103968a8a8888610ccb565b9150915060006103a68b84611027565b9050868111156103b4578690505b88156103ca576002816103c79190612098565b90505b6064881015610415576103e86064896102446103e691906120c9565b6103f09190612098565b6101a46103fd919061210b565b8261040891906120c9565b6104129190612098565b90505b808294509450505050965096945050505050565b60008060008054906101000a900473ffffffffffffffffffffffffffffffffffffffff1673ffffffffffffffffffffffffffffffffffffffff163373ffffffffffffffffffffffffffffffffffffffff16146104ba576040517f08c379a00000000000000000000000000000000000000000000000000000000081526004016104b19061201a565b60405180910390fd5b6000845190506000810361058b5760006104d387610b25565b9050805167ffffffffffffffff8111156104f0576104ef61172c565b5b60405190808252806020026020018201604052801561051e5781602001602082028036833780820191505090505b50955060005b81518110156105885760008282815181106105425761054161213f565b5b6020026020010151111561057d578087848061055d9061216e565b9550815181106105705761056f61213f565b5b6020026020010181815250505b806001019050610524565b50505b60008060005b838110156107ca576000600460008b73ffffffffffffffffffffffffffffffffffffffff1673ffffffffffffffffffffffffffffffffffffffff1681526020019081526020016000208983815181106105ed576105ec61213f565b5b6020026020010151815481106106065761060561213f565b5b906000526020600020015490506000806000610629848c64ffffffffff1661106b565b92509250925060008161ffff160361064457505050506107bd565b8287610650919061210b565b9650818661065e919061210b565b95506103e88161ffff1610156106a8578060036000868152602001908152602001600020600001601e6101000a81548161ffff021916908361ffff160217905550505050506107bd565b6000600460008f73ffffffffffffffffffffffffffffffffffffffff1673ffffffffffffffffffffffffffffffffffffffff1681526020019081526020016000208d87815181106106fc576106fb61213f565b5b6020026020010151815481106107155761071461213f565b5b906000526020600020018190555060036000858152602001908152602001600020600080820160006101000a81549064ffffffffff02191690556000820160056101000a81549063ffffffff02191690556000820160096101000a8154906affffffffffffffffffffff02191690556000820160146101000a81549069ffffffffffffffffffff021916905560008201601e6101000a81549061ffff02191690555050505050505b8080600101915050610591565b50818194509450505050935093915050565b60008060009054906101000a900473ffffffffffffffffffffffffffffffffffffffff1673ffffffffffffffffffffffffffffffffffffffff163373ffffffffffffffffffffffffffffffffffffffff161461086d576040517f08c379a00000000000000000000000000000000000000000000000000000000081526004016108649061201a565b60405180910390fd5b610875611634565b83816000019064ffffffffff16908164ffffffffff168152505082816020019063ffffffff16908163ffffffff16815250508581604001906affffffffffffffffffffff1690816affffffffffffffffffffff168152505084816060019069ffffffffffffffffffff16908169ffffffffffffffffffff168152505080600360006001600081546109059061216e565b919050819055815260200190815260200160002060008201518160000160006101000a81548164ffffffffff021916908364ffffffffff16021790555060208201518160000160056101000a81548163ffffffff021916908363ffffffff16021790555060408201518160000160096101000a8154816affffffffffffffffffffff02191690836affffffffffffffffffffff16021790555060608201518160000160146101000a81548169ffffffffffffffffffff021916908369ffffffffffffffffffff160217905550608082015181600001601e6101000a81548161ffff021916908361ffff160217905550905050610a038760015461133a565b8673ffffffffffffffffffffffffffffffffffffffff166001547f6e47dcdd359b6cd69456f0f97d394bd4540a2e7c4adc1b9da076859df53756c760405160405180910390a360015491505095945050505050565b60008054906101000a900473ffffffffffffffffffffffffffffffffffffffff1681565b60015481565b60008073ffffffffffffffffffffffffffffffffffffffff1660008054906101000a900473ffffffffffffffffffffffffffffffffffffffff1673ffffffffffffffffffffffffffffffffffffffff1614610adc57600080fd5b816000806101000a81548173ffffffffffffffffffffffffffffffffffffffff021916908373ffffffffffffffffffffffffffffffffffffffff16021790555060019050919050565b6060600460008373ffffffffffffffffffffffffffffffffffffffff1673ffffffffffffffffffffffffffffffffffffffff168152602001908152602001600020805480602002602001604051908101604052809291908181526020018280548015610bb057602002820191906000526020600020905b815481526020019060010190808311610b9c575b50505050509050919050565b610bc4611634565b600360008381526020019081526020016000206040518060a00160405290816000820160009054906101000a900464ffffffffff1664ffffffffff1664ffffffffff1681526020016000820160059054906101000a900463ffffffff1663ffffffff1663ffffffff1681526020016000820160099054906101000a90046affffffffffffffffffffff166affffffffffffffffffffff166affffffffffffffffffffff1681526020016000820160149054906101000a900469ffffffffffffffffffff1669ffffffffffffffffffff1669ffffffffffffffffffff16815260200160008201601e9054906101000a900461ffff1661ffff1661ffff16815250509050919050565b6000610cd5611600565b600060026040518060400160405290816000820160009054906101000a90046fffffffffffffffffffffffffffffffff166fffffffffffffffffffffffffffffffff166fffffffffffffffffffffffffffffffff1681526020016000820160109054906101000a900465ffffffffffff1665ffffffffffff1665ffffffffffff168152505090506000670de0b6b3a76400006103db610d7491906120c9565b90506000610da383602001518764ffffffffff16610d9291906121b6565b65ffffffffffff16620151806114d9565b90508564ffffffffff16836020019065ffffffffffff16908165ffffffffffff16815250506000610dd48284611027565b905060028a610de39190612098565b610e0385600001516fffffffffffffffffffffffffffffffff1683611515565b610e0d919061210b565b84600001906fffffffffffffffffffffffffffffffff1690816fffffffffffffffffffffffffffffffff16815250506000610e5e8986600001516fffffffffffffffffffffffffffffffff166114d9565b905060028b610e6d9190612098565b85600001818151610e7e91906121f0565b9150906fffffffffffffffffffffffffffffffff1690816fffffffffffffffffffffffffffffffff1681525050600067089393b9c7310000905080821115610ec4578091505b60006101688c03610ed757829050611011565b61010e8c03610f02576103e861029084610ef191906120c9565b610efb9190612098565b9050611010565b60b48c03610f2c576103e861017e84610f1b91906120c9565b610f259190612098565b905061100f565b60788c03610f55576103e860e384610f4491906120c9565b610f4e9190612098565b905061100e565b605a8c03610f7e576103e8609b84610f6d91906120c9565b610f779190612098565b905061100d565b603c8c03610fa7576103e8605d84610f9691906120c9565b610fa09190612098565b905061100c565b601e8c03610fd0576103e8602884610fbf91906120c9565b610fc99190612098565b905061100b565b6040517f08c379a000000000000000000000000000000000000000000000000000000000815260040161100290612280565b60405180910390fd5b5b5b5b5b5b5b8087985098505050505050505094509492505050565b6000670de0b6b3a764000061105961103f858561153a565b6002670de0b6b3a76400006110549190612098565b6115a7565b6110639190612098565b905092915050565b600080600080600360008781526020019081526020016000206040518060a00160405290816000820160009054906101000a900464ffffffffff1664ffffffffff1664ffffffffff1681526020016000820160059054906101000a900463ffffffff1663ffffffff1663ffffffff1681526020016000820160099054906101000a90046affffffffffffffffffffff166affffffffffffffffffffff166affffffffffffffffffffff1681526020016000820160149054906101000a900469ffffffffffffffffffff1669ffffffffffffffffffff1669ffffffffffffffffffff16815260200160008201601e9054906101000a900461ffff1661ffff1661ffff16815250509050806000015164ffffffffff16851161119657600080600093509350935050611333565b600080600080600066038d7ea4c6800090506000866080015161ffff161115611219576111e786604001516affffffffffffffffffffff1682886080015161ffff166111e291906120c9565b611027565b9250611216866060015169ffffffffffffffffffff1682886080015161ffff1661121191906120c9565b611027565b91505b6000866000015164ffffffffff168b61123291906122a0565b90506000876020015163ffffffff166103e88361124f91906120c9565b6112599190612098565b905060006103e88210156112e55761128d848361127691906120c9565b8a604001516affffffffffffffffffffff16611027565b90506112998187611515565b97506112c084836112aa91906120c9565b8a6060015169ffffffffffffffffffff16611027565b90506112cc8186611515565b96508787839b509b509b50505050505050505050611333565b61130089604001516affffffffffffffffffffff1687611515565b975061131c896060015169ffffffffffffffffffff1686611515565b965087876103e89b509b509b505050505050505050505b9250925092565b6000600460008473ffffffffffffffffffffffffffffffffffffffff1673ffffffffffffffffffffffffffffffffffffffff1681526020019081526020016000208054806020026020016040519081016040528092919081815260200182805480156113c557602002820191906000526020600020905b8154815260200190600101908083116113b1575b5050505050905060005b815181101561146c5760008282815181106113ed576113ec61213f565b5b6020026020010151036114615782600460008673ffffffffffffffffffffffffffffffffffffffff1673ffffffffffffffffffffffffffffffffffffffff168152602001908152602001600020828154811061144c5761144b61213f565b5b906000526020600020018190555050506114d5565b8060010190506113cf565b50600460008473ffffffffffffffffffffffffffffffffffffffff1673ffffffffffffffffffffffffffffffffffffffff168152602001908152602001600020829080600181540180825580915050600190039060005260206000200160009091909190915055505b5050565b6000816115036114f185670de0b6b3a764000061153a565b6002856114fe9190612098565b6115a7565b61150d9190612098565b905092915050565b600081831061152f57818361152a91906122a0565b611532565b60005b905092915050565b60008082148061156257508282838561155391906120c9565b9250826115609190612098565b145b6115a1576040517f08c379a000000000000000000000000000000000000000000000000000000000815260040161159890612320565b60405180910390fd5b92915050565b60008282846115b6919061210b565b91508110156115fa576040517f08c379a00000000000000000000000000000000000000000000000000000000081526004016115f19061238c565b60405180910390fd5b92915050565b604051806040016040528060006fffffffffffffffffffffffffffffffff168152602001600065ffffffffffff1681525090565b6040518060a00160405280600064ffffffffff168152602001600063ffffffff16815260200160006affffffffffffffffffffff168152602001600069ffffffffffffffffffff168152602001600061ffff1681525090565b60006fffffffffffffffffffffffffffffffff82169050919050565b6116b28161168d565b82525050565b600065ffffffffffff82169050919050565b6116d3816116b8565b82525050565b60006040820190506116ee60008301856116a9565b6116fb60208301846116ca565b9392505050565b6000604051905090565b600080fd5b600080fd5b600080fd5b6000601f19601f8301169050919050565b7f4e487b7100000000000000000000000000000000000000000000000000000000600052604160045260246000fd5b6117648261171b565b810181811067ffffffffffffffff821117156117835761178261172c565b5b80604052505050565b6000611796611702565b90506117a2828261175b565b919050565b6117b08161168d565b81146117bb57600080fd5b50565b6000813590506117cd816117a7565b92915050565b6117dc816116b8565b81146117e757600080fd5b50565b6000813590506117f9816117d3565b92915050565b60006040828403121561181557611814611716565b5b61181f604061178c565b9050600061182f848285016117be565b6000830152506020611843848285016117ea565b60208301525092915050565b6000604082840312156118655761186461170c565b5b6000611873848285016117ff565b91505092915050565b6000819050919050565b61188f8161187c565b811461189a57600080fd5b50565b6000813590506118ac81611886565b92915050565b60008115159050919050565b6118c7816118b2565b81146118d257600080fd5b50565b6000813590506118e4816118be565b92915050565b600064ffffffffff82169050919050565b611904816118ea565b811461190f57600080fd5b50565b600081359050611921816118fb565b92915050565b60008060008060008060c087890312156119445761194361170c565b5b600061195289828a0161189d565b965050602061196389828a0161189d565b955050604061197489828a016118d5565b945050606061198589828a0161189d565b935050608061199689828a0161189d565b92505060a06119a789828a01611912565b9150509295509295509295565b6119bd8161187c565b82525050565b6119cc8161168d565b82525050565b6119db816116b8565b82525050565b6040820160008201516119f760008501826119c3565b506020820151611a0a60208501826119d2565b50505050565b6000606082019050611a2560008301856119b4565b611a3260208301846119e1565b9392505050565b600073ffffffffffffffffffffffffffffffffffffffff82169050919050565b6000611a6482611a39565b9050919050565b611a7481611a59565b8114611a7f57600080fd5b50565b600081359050611a9181611a6b565b92915050565b600080fd5b600067ffffffffffffffff821115611ab757611ab661172c565b5b602082029050602081019050919050565b600080fd5b6000611ae0611adb84611a9c565b61178c565b90508083825260208201905060208402830185811115611b0357611b02611ac8565b5b835b81811015611b2c5780611b18888261189d565b845260208401935050602081019050611b05565b5050509392505050565b600082601f830112611b4b57611b4a611a97565b5b8135611b5b848260208601611acd565b91505092915050565b600080600060608486031215611b7d57611b7c61170c565b5b6000611b8b86828701611a82565b935050602084013567ffffffffffffffff811115611bac57611bab611711565b5b611bb886828701611b36565b9250506040611bc986828701611912565b9150509250925092565b6000604082019050611be860008301856119b4565b611bf560208301846119b4565b9392505050565b60006affffffffffffffffffffff82169050919050565b611c1c81611bfc565b8114611c2757600080fd5b50565b600081359050611c3981611c13565b92915050565b600069ffffffffffffffffffff82169050919050565b611c5e81611c3f565b8114611c6957600080fd5b50565b600081359050611c7b81611c55565b92915050565b600063ffffffff82169050919050565b611c9a81611c81565b8114611ca557600080fd5b50565b600081359050611cb781611c91565b92915050565b600080600080600060a08688031215611cd957611cd861170c565b5b6000611ce788828901611a82565b9550506020611cf888828901611c2a565b9450506040611d0988828901611c6c565b9350506060611d1a88828901611912565b9250506080611d2b88828901611ca8565b9150509295509295909350565b6000602082019050611d4d60008301846119b4565b92915050565b611d5c81611a59565b82525050565b6000602082019050611d776000830184611d53565b92915050565b600060208284031215611d9357611d9261170c565b5b6000611da184828501611a82565b91505092915050565b611db3816118b2565b82525050565b6000602082019050611dce6000830184611daa565b92915050565b600081519050919050565b600082825260208201905092915050565b6000819050602082019050919050565b611e098161187c565b82525050565b6000611e1b8383611e00565b60208301905092915050565b6000602082019050919050565b6000611e3f82611dd4565b611e498185611ddf565b9350611e5483611df0565b8060005b83811015611e85578151611e6c8882611e0f565b9750611e7783611e27565b925050600181019050611e58565b5085935050505092915050565b60006020820190508181036000830152611eac8184611e34565b905092915050565b600060208284031215611eca57611ec961170c565b5b6000611ed88482850161189d565b91505092915050565b611eea816118ea565b82525050565b611ef981611c81565b82525050565b611f0881611bfc565b82525050565b611f1781611c3f565b82525050565b600061ffff82169050919050565b611f3481611f1d565b82525050565b60a082016000820151611f506000850182611ee1565b506020820151611f636020850182611ef0565b506040820151611f766040850182611eff565b506060820151611f896060850182611f0e565b506080820151611f9c6080850182611f2b565b50505050565b600060a082019050611fb76000830184611f3a565b92915050565b600082825260208201905092915050565b7f4f4e4c595f544f4b454e5f434f4e545241435400000000000000000000000000600082015250565b6000612004601383611fbd565b915061200f82611fce565b602082019050919050565b6000602082019050818103600083015261203381611ff7565b9050919050565b7f4e487b7100000000000000000000000000000000000000000000000000000000600052601260045260246000fd5b7f4e487b7100000000000000000000000000000000000000000000000000000000600052601160045260246000fd5b60006120a38261187c565b91506120ae8361187c565b9250826120be576120bd61203a565b5b828204905092915050565b60006120d48261187c565b91506120df8361187c565b92508282026120ed8161187c565b9150828204841483151761210457612103612069565b5b5092915050565b60006121168261187c565b91506121218361187c565b925082820190508082111561213957612138612069565b5b92915050565b7f4e487b7100000000000000000000000000000000000000000000000000000000600052603260045260246000fd5b60006121798261187c565b91507fffffffffffffffffffffffffffffffffffffffffffffffffffffffffffffffff82036121ab576121aa612069565b5b600182019050919050565b60006121c1826116b8565b91506121cc836116b8565b9250828203905065ffffffffffff8111156121ea576121e9612069565b5b92915050565b60006121fb8261168d565b91506122068361168d565b925082820190506fffffffffffffffffffffffffffffffff81111561222e5761222d612069565b5b92915050565b7f57524f4e475f5354414b494e475f504552494f44000000000000000000000000600082015250565b600061226a601483611fbd565b915061227582612234565b602082019050919050565b600060208201905081810360008301526122998161225d565b9050919050565b60006122ab8261187c565b91506122b68361187c565b92508282039050818111156122ce576122cd612069565b5b92915050565b7f64732d6d6174682d6d756c2d6f766572666c6f77000000000000000000000000600082015250565b600061230a601483611fbd565b9150612315826122d4565b602082019050919050565b60006020820190508181036000830152612339816122fd565b9050919050565b7f64732d6d6174682d6164642d6f766572666c6f77000000000000000000000000600082015250565b6000612376601483611fbd565b915061238182612340565b602082019050919050565b600060208201905081810360008301526123a581612369565b905091905056fea2646970667358221220062bfc468dd001d20593fc2bfa0c69188a11fac3e45994109fba6503ce4ed08064736f6c63430008180033",
  "linkReferences": {},
  "deployedLinkReferences": {}
}