{
  "_format": "hh-sol-artifact-1",
  "contractName": "ZBTC",
  "sourceName": "contracts/flattened/ZBTC.sol",
  "abi": [
    {
      "inputs": [
        {
          "internalType": "address",
          "name": "initialOwner",
          "type": "address"
        }
      ],
      "stateMutability": "nonpayable",
      "type": "constructor"
    },
    {
      "inputs": [
        {
          "internalType": "uint256",
          "name": "increasedSupply",
          "type": "uint256"
        },
        {
          "internalType": "uint256",
          "name": "cap",
          "type": "uint256"
        }
      ],
      "name": "ERC20ExceededCap",
      "type": "error"
    },
    {
      "inputs": [
        {
          "internalType": "address",
          "name": "spender",
          "type": "address"
        },
        {
          "internalType": "uint256",
          "name": "allowance",
          "type": "uint256"
        },
        {
          "internalType": "uint256",
          "name": "needed",
          "type": "uint256"
        }
      ],
      "name": "ERC20InsufficientAllowance",
      "type": "error"
    },
    {
      "inputs": [
        {
          "internalType": "address",
          "name": "sender",
          "type": "address"
        },
        {
          "internalType": "uint256",
          "name": "balance",
          "type": "uint256"
        },
        {
          "internalType": "uint256",
          "name": "needed",
          "type": "uint256"
        }
      ],
      "name": "ERC20InsufficientBalance",
      "type": "error"
    },
    {
      "inputs": [
        {
          "internalType": "address",
          "name": "approver",
          "type": "address"
        }
      ],
      "name": "ERC20InvalidApprover",
      "type": "error"
    },
    {
      "inputs": [
        {
          "internalType": "uint256",
          "name": "cap",
          "type": "uint256"
        }
      ],
      "name": "ERC20InvalidCap",
      "type": "error"
    },
    {
      "inputs": [
        {
          "internalType": "address",
          "name": "receiver",
          "type": "address"
        }
      ],
      "name": "ERC20InvalidReceiver",
      "type": "error"
    },
    {
      "inputs": [
        {
          "internalType": "address",
          "name": "sender",
          "type": "address"
        }
      ],
      "name": "ERC20InvalidSender",
      "type": "error"
    },
    {
      "inputs": [
        {
          "internalType": "address",
          "name": "spender",
          "type": "address"
        }
      ],
      "name": "ERC20InvalidSpender",
      "type": "error"
    },
    {
      "inputs": [
        {
          "internalType": "address",
          "name": "owner",
          "type": "address"
        }
      ],
      "name": "OwnableInvalidOwner",
      "type": "error"
    },
    {
      "inputs": [
        {
          "internalType": "address",
          "name": "account",
          "type": "address"
        }
      ],
      "name": "OwnableUnauthorizedAccount",
      "type": "error"
    },
    {
      "anonymous": false,
      "inputs": [
        {
          "indexed": true,
          "internalType": "address",
          "name": "owner",
          "type": "address"
        },
        {
          "indexed": true,
          "internalType": "address",
          "name": "spender",
          "type": "address"
        },
        {
          "indexed": false,
          "internalType": "uint256",
          "name": "value",
          "type": "uint256"
        }
      ],
      "name": "Approval",
      "type": "event"
    },
    {
      "anonymous": false,
      "inputs": [
        {
          "indexed": true,
          "internalType": "address",
          "name": "previousOwner",
          "type": "address"
        },
        {
          "indexed": true,
          "internalType": "address",
          "name": "newOwner",
          "type": "address"
        }
      ],
      "name": "OwnershipTransferred",
      "type": "event"
    },
    {
      "anonymous": false,
      "inputs": [
        {
          "indexed": true,
          "internalType": "address",
          "name": "from",
          "type": "address"
        },
        {
          "indexed": true,
          "internalType": "address",
          "name": "to",
          "type": "address"
        },
        {
          "indexed": false,
          "internalType": "uint256",
          "name": "value",
          "type": "uint256"
        }
      ],
      "name": "Transfer",
      "type": "event"
    },
    {
      "inputs": [
        {
          "internalType": "address",
          "name": "owner",
          "type": "address"
        },
        {
          "internalType": "address",
          "name": "spender",
          "type": "address"
        }
      ],
      "name": "allowance",
      "outputs": [
        {
          "internalType": "uint256",
          "name": "",
          "type": "uint256"
        }
      ],
      "stateMutability": "view",
      "type": "function"
    },
    {
      "inputs": [
        {
          "internalType": "address",
          "name": "spender",
          "type": "address"
        },
        {
          "internalType": "uint256",
          "name": "value",
          "type": "uint256"
        }
      ],
      "name": "approve",
      "outputs": [
        {
          "internalType": "bool",
          "name": "",
          "type": "bool"
        }
      ],
      "stateMutability": "nonpayable",
      "type": "function"
    },
    {
      "inputs": [
        {
          "internalType": "address",
          "name": "account",
          "type": "address"
        }
      ],
      "name": "balanceOf",
      "outputs": [
        {
          "internalType": "uint256",
          "name": "",
          "type": "uint256"
        }
      ],
      "stateMutability": "view",
      "type": "function"
    },
    {
      "inputs": [],
      "name": "cap",
      "outputs": [
        {
          "internalType": "uint256",
          "name": "",
          "type": "uint256"
        }
      ],
      "stateMutability": "view",
      "type": "function"
    },
    {
      "inputs": [],
      "name": "decimals",
      "outputs": [
        {
          "internalType": "uint8",
          "name": "",
          "type": "uint8"
        }
      ],
      "stateMutability": "view",
      "type": "function"
    },
    {
      "inputs": [
        {
          "internalType": "uint24",
          "name": "p_id",
          "type": "uint24"
        }
      ],
      "name": "getBlock",
      "outputs": [
        {
          "components": [
            {
              "internalType": "uint24",
              "name": "id",
              "type": "uint24"
            },
            {
              "internalType": "bool",
              "name": "sealed_",
              "type": "bool"
            },
            {
              "internalType": "uint128",
              "name": "random",
              "type": "uint128"
            },
            {
              "internalType": "uint40",
              "name": "deadline",
              "type": "uint40"
            },
            {
              "internalType": "uint8",
              "name": "difficulty",
              "type": "uint8"
            },
            {
              "internalType": "uint8",
              "name": "winnerscnt",
              "type": "uint8"
            }
          ],
          "internalType": "struct IMining.zblock",
          "name": "",
          "type": "tuple"
        }
      ],
      "stateMutability": "view",
      "type": "function"
    },
    {
      "inputs": [],
      "name": "getCurrentBlock",
      "outputs": [
        {
          "components": [
            {
              "internalType": "uint24",
              "name": "id",
              "type": "uint24"
            },
            {
              "internalType": "bool",
              "name": "sealed_",
              "type": "bool"
            },
            {
              "internalType": "uint128",
              "name": "random",
              "type": "uint128"
            },
            {
              "internalType": "uint40",
              "name": "deadline",
              "type": "uint40"
            },
            {
              "internalType": "uint8",
              "name": "difficulty",
              "type": "uint8"
            },
            {
              "internalType": "uint8",
              "name": "winnerscnt",
              "type": "uint8"
            }
          ],
          "internalType": "struct IMining.zblock",
          "name": "",
          "type": "tuple"
        }
      ],
      "stateMutability": "view",
      "type": "function"
    },
    {
      "inputs": [
        {
          "internalType": "uint8",
          "name": "p_epoch",
          "type": "uint8"
        }
      ],
      "name": "getEpochData",
      "outputs": [
        {
          "components": [
            {
              "internalType": "uint256",
              "name": "blockreward",
              "type": "uint256"
            },
            {
              "internalType": "uint8",
              "name": "maxwinners",
              "type": "uint8"
            },
            {
              "components": [
                {
                  "internalType": "uint256",
                  "name": "reported",
                  "type": "uint256"
                },
                {
                  "internalType": "uint256[]",
                  "name": "winamount",
                  "type": "uint256[]"
                }
              ],
              "internalType": "struct IMining.rewarddata[]",
              "name": "rewarddata",
              "type": "tuple[]"
            }
          ],
          "internalType": "struct IMining.epochdata",
          "name": "",
          "type": "tuple"
        }
      ],
      "stateMutability": "view",
      "type": "function"
    },
    {
      "inputs": [
        {
          "internalType": "string",
          "name": "p_key",
          "type": "string"
        }
      ],
      "name": "getFunds",
      "outputs": [
        {
          "components": [
            {
              "internalType": "uint256",
              "name": "max",
              "type": "uint256"
            },
            {
              "internalType": "uint256",
              "name": "minted",
              "type": "uint256"
            }
          ],
          "internalType": "struct IToken.fund",
          "name": "",
          "type": "tuple"
        }
      ],
      "stateMutability": "view",
      "type": "function"
    },
    {
      "inputs": [
        {
          "internalType": "uint256",
          "name": "p_id",
          "type": "uint256"
        }
      ],
      "name": "getStake",
      "outputs": [
        {
          "components": [
            {
              "internalType": "uint40",
              "name": "start",
              "type": "uint40"
            },
            {
              "internalType": "uint32",
              "name": "duration",
              "type": "uint32"
            },
            {
              "internalType": "uint88",
              "name": "amount",
              "type": "uint88"
            },
            {
              "internalType": "uint80",
              "name": "interestamount",
              "type": "uint80"
            },
            {
              "internalType": "uint16",
              "name": "p",
              "type": "uint16"
            }
          ],
          "internalType": "struct IStaking.stakedata",
          "name": "",
          "type": "tuple"
        }
      ],
      "stateMutability": "view",
      "type": "function"
    },
    {
      "inputs": [],
      "name": "getStakeAvailableFunds",
      "outputs": [
        {
          "internalType": "uint256",
          "name": "",
          "type": "uint256"
        }
      ],
      "stateMutability": "view",
      "type": "function"
    },
    {
      "inputs": [
        {
          "internalType": "uint256",
          "name": "p_amount",
          "type": "uint256"
        },
        {
          "internalType": "uint256",
          "name": "p_period",
          "type": "uint256"
        },
        {
          "internalType": "bool",
          "name": "p_upfront",
          "type": "bool"
        },
        {
          "internalType": "uint256",
          "name": "p_cliff",
          "type": "uint256"
        }
      ],
      "name": "getStakingInterestAmount",
      "outputs": [
        {
          "internalType": "uint256",
          "name": "",
          "type": "uint256"
        }
      ],
      "stateMutability": "view",
      "type": "function"
    },
    {
      "inputs": [],
      "name": "getTimestamp",
      "outputs": [
        {
          "internalType": "uint40",
          "name": "",
          "type": "uint40"
        }
      ],
      "stateMutability": "view",
      "type": "function"
    },
    {
      "inputs": [],
      "name": "icoContractAddress",
      "outputs": [
        {
          "internalType": "address",
          "name": "",
          "type": "address"
        }
      ],
      "stateMutability": "view",
      "type": "function"
    },
    {
      "inputs": [
        {
          "internalType": "address",
          "name": "p_beneficiary",
          "type": "address"
        },
        {
          "internalType": "uint256",
          "name": "p_amount",
          "type": "uint256"
        }
      ],
      "name": "mintFromIcoContract",
      "outputs": [
        {
          "internalType": "bool",
          "name": "",
          "type": "bool"
        }
      ],
      "stateMutability": "nonpayable",
      "type": "function"
    },
    {
      "inputs": [],
      "name": "miscContractAddress",
      "outputs": [
        {
          "internalType": "address",
          "name": "",
          "type": "address"
        }
      ],
      "stateMutability": "view",
      "type": "function"
    },
    {
      "inputs": [
        {
          "internalType": "uint256",
          "name": "p_amount",
          "type": "uint256"
        }
      ],
      "name": "moveFundsFromIcoToStaking",
      "outputs": [
        {
          "internalType": "bool",
          "name": "",
          "type": "bool"
        }
      ],
      "stateMutability": "nonpayable",
      "type": "function"
    },
    {
      "inputs": [],
      "name": "name",
      "outputs": [
        {
          "internalType": "string",
          "name": "",
          "type": "string"
        }
      ],
      "stateMutability": "view",
      "type": "function"
    },
    {
      "inputs": [],
      "name": "owner",
      "outputs": [
        {
          "internalType": "address",
          "name": "",
          "type": "address"
        }
      ],
      "stateMutability": "view",
      "type": "function"
    },
    {
      "inputs": [
        {
          "internalType": "address",
          "name": "p_address",
          "type": "address"
        },
        {
          "internalType": "string",
          "name": "p_key",
          "type": "string"
        },
        {
          "internalType": "string",
          "name": "p_salt",
          "type": "string"
        }
      ],
      "name": "postKey",
      "outputs": [
        {
          "internalType": "bool",
          "name": "",
          "type": "bool"
        }
      ],
      "stateMutability": "nonpayable",
      "type": "function"
    },
    {
      "inputs": [],
      "name": "renounceOwnership",
      "outputs": [],
      "stateMutability": "nonpayable",
      "type": "function"
    },
    {
      "inputs": [
        {
          "internalType": "uint24",
          "name": "p_blockid",
          "type": "uint24"
        }
      ],
      "name": "sealBlock",
      "outputs": [
        {
          "internalType": "bool",
          "name": "",
          "type": "bool"
        }
      ],
      "stateMutability": "nonpayable",
      "type": "function"
    },
    {
      "inputs": [
        {
          "internalType": "address",
          "name": "p_icoContractAddress",
          "type": "address"
        }
      ],
      "name": "setIcoContract",
      "outputs": [
        {
          "internalType": "bool",
          "name": "",
          "type": "bool"
        }
      ],
      "stateMutability": "nonpayable",
      "type": "function"
    },
    {
      "inputs": [
        {
          "internalType": "address",
          "name": "p_address",
          "type": "address"
        }
      ],
      "name": "setMiscContractAddress",
      "outputs": [
        {
          "internalType": "bool",
          "name": "",
          "type": "bool"
        }
      ],
      "stateMutability": "nonpayable",
      "type": "function"
    },
    {
      "inputs": [
        {
          "internalType": "string",
          "name": "p_data",
          "type": "string"
        }
      ],
      "name": "setWhitepaperData",
      "outputs": [
        {
          "internalType": "bool",
          "name": "",
          "type": "bool"
        }
      ],
      "stateMutability": "nonpayable",
      "type": "function"
    },
    {
      "inputs": [
        {
          "internalType": "uint256",
          "name": "p_amount",
          "type": "uint256"
        },
        {
          "internalType": "uint256",
          "name": "p_period",
          "type": "uint256"
        },
        {
          "internalType": "bool",
          "name": "p_upfrontInterest",
          "type": "bool"
        },
        {
          "internalType": "uint256",
          "name": "p_cliff",
          "type": "uint256"
        },
        {
          "internalType": "uint256",
          "name": "p_minInterestAmount",
          "type": "uint256"
        }
      ],
      "name": "stake",
      "outputs": [
        {
          "internalType": "uint256",
          "name": "",
          "type": "uint256"
        },
        {
          "internalType": "uint256",
          "name": "",
          "type": "uint256"
        }
      ],
      "stateMutability": "nonpayable",
      "type": "function"
    },
    {
      "inputs": [],
      "name": "symbol",
      "outputs": [
        {
          "internalType": "string",
          "name": "",
          "type": "string"
        }
      ],
      "stateMutability": "view",
      "type": "function"
    },
    {
      "inputs": [],
      "name": "totalSupply",
      "outputs": [
        {
          "internalType": "uint256",
          "name": "",
          "type": "uint256"
        }
      ],
      "stateMutability": "view",
      "type": "function"
    },
    {
      "inputs": [
        {
          "internalType": "address",
          "name": "to",
          "type": "address"
        },
        {
          "internalType": "uint256",
          "name": "value",
          "type": "uint256"
        }
      ],
      "name": "transfer",
      "outputs": [
        {
          "internalType": "bool",
          "name": "",
          "type": "bool"
        }
      ],
      "stateMutability": "nonpayable",
      "type": "function"
    },
    {
      "inputs": [
        {
          "internalType": "address",
          "name": "from",
          "type": "address"
        },
        {
          "internalType": "address",
          "name": "to",
          "type": "address"
        },
        {
          "internalType": "uint256",
          "name": "value",
          "type": "uint256"
        }
      ],
      "name": "transferFrom",
      "outputs": [
        {
          "internalType": "bool",
          "name": "",
          "type": "bool"
        }
      ],
      "stateMutability": "nonpayable",
      "type": "function"
    },
    {
      "inputs": [
        {
          "internalType": "address",
          "name": "newOwner",
          "type": "address"
        }
      ],
      "name": "transferOwnership",
      "outputs": [],
      "stateMutability": "nonpayable",
      "type": "function"
    },
    {
      "inputs": [
        {
          "internalType": "address",
          "name": "p_contract",
          "type": "address"
        },
        {
          "internalType": "uint256",
          "name": "p_amount",
          "type": "uint256"
        }
      ],
      "name": "transferTokensToContract",
      "outputs": [
        {
          "internalType": "bool",
          "name": "",
          "type": "bool"
        }
      ],
      "stateMutability": "nonpayable",
      "type": "function"
    },
    {
      "inputs": [],
      "name": "updateRandom",
      "outputs": [
        {
          "internalType": "bool",
          "name": "",
          "type": "bool"
        }
      ],
      "stateMutability": "nonpayable",
      "type": "function"
    },
    {
      "inputs": [],
      "name": "whitepaperData",
      "outputs": [
        {
          "internalType": "string",
          "name": "",
          "type": "string"
        }
      ],
      "stateMutability": "view",
      "type": "function"
    },
    {
      "inputs": [],
      "name": "withdrawMiscReward",
      "outputs": [
        {
          "internalType": "bool",
          "name": "",
          "type": "bool"
        }
      ],
      "stateMutability": "nonpayable",
      "type": "function"
    },
    {
      "inputs": [
        {
          "internalType": "uint256[]",
          "name": "p_positions",
          "type": "uint256[]"
        }
      ],
      "name": "withdrawStakings",
      "outputs": [
        {
          "internalType": "bool",
          "name": "",
          "type": "bool"
        }
      ],
      "stateMutability": "nonpayable",
      "type": "function"
    }
  ],
  "bytecode": "0x60a0604052604051806020016040528060008152506009908162000024919062000a5d565b503480156200003257600080fd5b50604051620061ec380380620061ec833981810160405281019062000058919062000bae565b8062000069620006de60201b60201c565b600a62000077919062000d70565b62213d0562000087919062000dc1565b6040518060400160405280600c81526020017f4c6f737420426974636f696e00000000000000000000000000000000000000008152506040518060400160405280600481526020017f5a42544300000000000000000000000000000000000000000000000000000000815250816003908162000104919062000a5d565b50806004908162000116919062000a5d565b50505060008103620001625760006040517f392e1e2700000000000000000000000000000000000000000000000000000000815260040162000159919062000e4f565b60405180910390fd5b806080818152505050600073ffffffffffffffffffffffffffffffffffffffff168173ffffffffffffffffffffffffffffffffffffffff1603620001e05760006040517f1e4fbdf7000000000000000000000000000000000000000000000000000000008152600401620001d7919062000e7d565b60405180910390fd5b620001f181620006e760201b60201c565b50738244cb2f488a07ef635b8f79ad425202411bcfe373ffffffffffffffffffffffffffffffffffffffff1663bbcd5bbe306040518263ffffffff1660e01b815260040162000241919062000e7d565b6020604051808303816000875af115801562000261573d6000803e3d6000fd5b505050506040513d601f19601f8201168201806040525081019062000287919062000ed7565b620002c9576040517f08c379a0000000000000000000000000000000000000000000000000000000008152600401620002c09062000f6a565b60405180910390fd5b73a67cf5a29fc92450e1e60239d4352b9a712884cc73ffffffffffffffffffffffffffffffffffffffff1663bbcd5bbe306040518263ffffffff1660e01b815260040162000318919062000e7d565b6020604051808303816000875af115801562000338573d6000803e3d6000fd5b505050506040513d601f19601f820116820180604052508101906200035e919062000ed7565b620003a0576040517f08c379a0000000000000000000000000000000000000000000000000000000008152600401620003979062001002565b60405180910390fd5b620004146040518060400160405280600881526020017f5f6d696e696e675f000000000000000000000000000000000000000000000000815250620003ea620006de60201b60201c565b600a620003f8919062000d70565b62180d3062000408919062000dc1565b620007ad60201b60201c565b620004886040518060400160405280600581526020017f5f69636f5f0000000000000000000000000000000000000000000000000000008152506200045e620006de60201b60201c565b600a6200046c919062000d70565b620630936200047c919062000dc1565b620007ad60201b60201c565b620004fc6040518060400160405280600681526020017f5f6d6973635f0000000000000000000000000000000000000000000000000000815250620004d2620006de60201b60201c565b600a620004e0919062000d70565b6202ff42620004f0919062000dc1565b620007ad60201b60201c565b6200050c620007d960201b60201c565b60086040518060400160405280600981526020017f5f7374616b696e675f000000000000000000000000000000000000000000000081525060405162000553919062001092565b90815260200160405180910390206000015460086040518060400160405280600681526020017f5f6d6973635f0000000000000000000000000000000000000000000000000000815250604051620005ac919062001092565b90815260200160405180910390206000015460086040518060400160405280600581526020017f5f69636f5f00000000000000000000000000000000000000000000000000000081525060405162000605919062001092565b90815260200160405180910390206000015460086040518060400160405280600881526020017f5f6d696e696e675f0000000000000000000000000000000000000000000000008152506040516200065e919062001092565b9081526020016040518091039020600001546200067c9190620010ab565b620006889190620010ab565b620006949190620010ab565b14620006d7576040517f08c379a0000000000000000000000000000000000000000000000000000000008152600401620006ce9062001136565b60405180910390fd5b5062001158565b60006012905090565b6000600560009054906101000a900473ffffffffffffffffffffffffffffffffffffffff16905081600560006101000a81548173ffffffffffffffffffffffffffffffffffffffff021916908373ffffffffffffffffffffffffffffffffffffffff1602179055508173ffffffffffffffffffffffffffffffffffffffff168173ffffffffffffffffffffffffffffffffffffffff167f8be0079c531659141344cd1fd0a4f28419497f9722a3daafe3b4186f6b6457e060405160405180910390a35050565b80600883604051620007c0919062001092565b9081526020016040518091039020600001819055505050565b6000608051905090565b600081519050919050565b7f4e487b7100000000000000000000000000000000000000000000000000000000600052604160045260246000fd5b7f4e487b7100000000000000000000000000000000000000000000000000000000600052602260045260246000fd5b600060028204905060018216806200086557607f821691505b6020821081036200087b576200087a6200081d565b5b50919050565b60008190508160005260206000209050919050565b60006020601f8301049050919050565b600082821b905092915050565b600060088302620008e57fffffffffffffffffffffffffffffffffffffffffffffffffffffffffffffffff82620008a6565b620008f18683620008a6565b95508019841693508086168417925050509392505050565b6000819050919050565b6000819050919050565b60006200093e62000938620009328462000909565b62000913565b62000909565b9050919050565b6000819050919050565b6200095a836200091d565b62000972620009698262000945565b848454620008b3565b825550505050565b600090565b620009896200097a565b620009968184846200094f565b505050565b5b81811015620009be57620009b26000826200097f565b6001810190506200099c565b5050565b601f82111562000a0d57620009d78162000881565b620009e28462000896565b81016020851015620009f2578190505b62000a0a62000a018562000896565b8301826200099b565b50505b505050565b600082821c905092915050565b600062000a326000198460080262000a12565b1980831691505092915050565b600062000a4d838362000a1f565b9150826002028217905092915050565b62000a6882620007e3565b67ffffffffffffffff81111562000a845762000a83620007ee565b5b62000a9082546200084c565b62000a9d828285620009c2565b600060209050601f83116001811462000ad5576000841562000ac0578287015190505b62000acc858262000a3f565b86555062000b3c565b601f19841662000ae58662000881565b60005b8281101562000b0f5784890151825560018201915060208501945060208101905062000ae8565b8683101562000b2f578489015162000b2b601f89168262000a1f565b8355505b6001600288020188555050505b505050505050565b600080fd5b600073ffffffffffffffffffffffffffffffffffffffff82169050919050565b600062000b768262000b49565b9050919050565b62000b888162000b69565b811462000b9457600080fd5b50565b60008151905062000ba88162000b7d565b92915050565b60006020828403121562000bc75762000bc662000b44565b5b600062000bd78482850162000b97565b91505092915050565b7f4e487b7100000000000000000000000000000000000000000000000000000000600052601160045260246000fd5b60008160011c9050919050565b6000808291508390505b600185111562000c6e5780860481111562000c465762000c4562000be0565b5b600185161562000c565780820291505b808102905062000c668562000c0f565b945062000c26565b94509492505050565b60008262000c89576001905062000d5c565b8162000c99576000905062000d5c565b816001811462000cb2576002811462000cbd5762000cf3565b600191505062000d5c565b60ff84111562000cd25762000cd162000be0565b5b8360020a91508482111562000cec5762000ceb62000be0565b5b5062000d5c565b5060208310610133831016604e8410600b841016171562000d2d5782820a90508381111562000d275762000d2662000be0565b5b62000d5c565b62000d3c848484600162000c1c565b9250905081840481111562000d565762000d5562000be0565b5b81810290505b9392505050565b600060ff82169050919050565b600062000d7d8262000909565b915062000d8a8362000d63565b925062000db97fffffffffffffffffffffffffffffffffffffffffffffffffffffffffffffffff848462000c77565b905092915050565b600062000dce8262000909565b915062000ddb8362000909565b925082820262000deb8162000909565b9150828204841483151762000e055762000e0462000be0565b5b5092915050565b6000819050919050565b600062000e3762000e3162000e2b8462000e0c565b62000913565b62000909565b9050919050565b62000e498162000e16565b82525050565b600060208201905062000e66600083018462000e3e565b92915050565b62000e778162000b69565b82525050565b600060208201905062000e94600083018462000e6c565b92915050565b60008115159050919050565b62000eb18162000e9a565b811462000ebd57600080fd5b50565b60008151905062000ed18162000ea6565b92915050565b60006020828403121562000ef05762000eef62000b44565b5b600062000f008482850162000ec0565b91505092915050565b600082825260208201905092915050565b7f5345545f4d494e494e475f544f4b454e5f434f4e54524143545f4641494c4544600082015250565b600062000f5260208362000f09565b915062000f5f8262000f1a565b602082019050919050565b6000602082019050818103600083015262000f858162000f43565b9050919050565b7f5345545f5354414b494e475f544f4b454e5f434f4e54524143545f4641494c4560008201527f4400000000000000000000000000000000000000000000000000000000000000602082015250565b600062000fea60218362000f09565b915062000ff78262000f8c565b604082019050919050565b600060208201905081810360008301526200101d8162000fdb565b9050919050565b600081905092915050565b60005b838110156200104f57808201518184015260208101905062001032565b60008484015250505050565b60006200106882620007e3565b62001074818562001024565b9350620010868185602086016200102f565b80840191505092915050565b6000620010a082846200105b565b915081905092915050565b6000620010b88262000909565b9150620010c58362000909565b9250828201905080821115620010e057620010df62000be0565b5b92915050565b7f4341505f4552524f520000000000000000000000000000000000000000000000600082015250565b60006200111e60098362000f09565b91506200112b82620010e6565b602082019050919050565b6000602082019050818103600083015262001151816200110f565b9050919050565b60805161507862001174600039600061097501526150786000f3fe608060405234801561001057600080fd5b506004361061021c5760003560e01c80637990354011610125578063b06da295116100ad578063ce325bf81161007c578063ce325bf8146106d0578063dd62ed3e14610700578063e09678fd14610730578063e2e55b3114610760578063f2fde38b146107905761021c565b8063b06da29514610622578063b67e5f8614610652578063ba37f65d14610682578063c69ef5c5146106a05761021c565b806395d89b41116100f457806395d89b41146105675780639b058c37146105855780639fe17cc2146105a3578063a2b1130a146105c1578063a9059cbb146105f25761021c565b806379903540146104b95780638224c5a5146104e95780638da5cb5b14610519578063918d1ede146105375761021c565b80633c70f8de116101a8578063672d5d3b11610177578063672d5d3b146104135780636a0e82b41461043157806370a082311461044f578063715018a61461047f57806377d36df7146104895761021c565b80633c70f8de146103775780634d2f32b11461039557806362fdd754146103c5578063645dbfd4146103f55761021c565b8063188ec356116101ef578063188ec356146102bd57806323b872dd146102db5780632d0c9b1c1461030b578063313ce5671461033b578063355274ea146103595761021c565b806306fdde0314610221578063095ea7b31461023f5780630e2afc981461026f57806318160ddd1461029f575b600080fd5b6102296107ac565b6040516102369190612e9f565b60405180910390f35b61025960048036038101906102549190612f69565b61083e565b6040516102669190612fc4565b60405180910390f35b61028960048036038101906102849190613044565b610861565b6040516102969190612fc4565b60405180910390f35b6102a76108d8565b6040516102b491906130a0565b60405180910390f35b6102c56108e2565b6040516102d291906130db565b60405180910390f35b6102f560048036038101906102f091906130f6565b6108ea565b6040516103029190612fc4565b60405180910390f35b61032560048036038101906103209190613044565b610919565b6040516103329190613187565b60405180910390f35b610343610968565b60405161035091906131be565b60405180910390f35b610361610971565b60405161036e91906130a0565b60405180910390f35b61037f610999565b60405161038c9190612fc4565b60405180910390f35b6103af60048036038101906103aa91906131d9565b610c39565b6040516103bc9190612fc4565b60405180910390f35b6103df60048036038101906103da919061325c565b610d50565b6040516103ec9190612fc4565b60405180910390f35b6103fd610e39565b60405161040a9190612fc4565b60405180910390f35b61041b610ed7565b604051610428919061339a565b60405180910390f35b610439610f79565b6040516104469190612e9f565b60405180910390f35b610469600480360381019061046491906133b5565b611007565b60405161047691906130a0565b60405180910390f35b61048761104f565b005b6104a3600480360381019061049e919061340e565b611063565b6040516104b091906130a0565b60405180910390f35b6104d360048036038101906104ce91906134a1565b611085565b6040516104e0919061339a565b60405180910390f35b61050360048036038101906104fe9190612f69565b611122565b6040516105109190612fc4565b60405180910390f35b610521611205565b60405161052e91906134dd565b60405180910390f35b610551600480360381019061054c91906133b5565b61122f565b60405161055e9190612fc4565b60405180910390f35b61056f611283565b60405161057c9190612e9f565b60405180910390f35b61058d611315565b60405161059a91906134dd565b60405180910390f35b6105ab61133b565b6040516105b891906134dd565b60405180910390f35b6105db60048036038101906105d691906134f8565b611361565b6040516105e9929190613573565b60405180910390f35b61060c60048036038101906106079190612f69565b6116ad565b6040516106199190612fc4565b60405180910390f35b61063c60048036038101906106379190612f69565b6116d0565b6040516106499190612fc4565b60405180910390f35b61066c600480360381019061066791906134a1565b6117b1565b6040516106799190612fc4565b60405180910390f35b61068a611873565b60405161069791906130a0565b60405180910390f35b6106ba60048036038101906106b591906135c8565b611932565b6040516106c791906137f3565b60405180910390f35b6106ea60048036038101906106e591906131d9565b6119d4565b6040516106f79190613904565b60405180910390f35b61071a6004803603810190610715919061391f565b611a71565b60405161072791906130a0565b60405180910390f35b61074a600480360381019061074591906133b5565b611af8565b6040516107579190612fc4565b60405180910390f35b61077a6004803603810190610775919061395f565b611c77565b6040516107879190612fc4565b60405180910390f35b6107aa60048036038101906107a591906133b5565b611d8e565b005b6060600380546107bb90613a23565b80601f01602080910402602001604051908101604052809291908181526020018280546107e790613a23565b80156108345780601f1061080957610100808354040283529160200191610834565b820191906000526020600020905b81548152906001019060200180831161081757829003601f168201915b5050505050905090565b600080610849611e14565b9050610856818585611e1c565b600191505092915050565b600061086b611e2e565b60006009805461087a90613a23565b9050146108bc576040517f08c379a00000000000000000000000000000000000000000000000000000000081526004016108b390613aa0565b60405180910390fd5b8282600991826108cd929190613ca6565b506001905092915050565b6000600254905090565b600042905090565b6000806108f5611e14565b9050610902858285611eb5565b61090d858585611f49565b60019150509392505050565b610921612ce8565b60088383604051610933929190613db5565b908152602001604051809103902060405180604001604052908160008201548152602001600182015481525050905092915050565b60006012905090565b60007f0000000000000000000000000000000000000000000000000000000000000000905090565b60006109a3611e2e565b600073ffffffffffffffffffffffffffffffffffffffff16600760009054906101000a900473ffffffffffffffffffffffffffffffffffffffff1673ffffffffffffffffffffffffffffffffffffffff1603610a34576040517f08c379a0000000000000000000000000000000000000000000000000000000008152600401610a2b90613e1a565b60405180910390fd5b600060086040518060400160405280600881526020017f5f6d696e696e675f000000000000000000000000000000000000000000000000815250604051610a7b9190613e6b565b908152602001604051809103902060000154670de0b6b3a764000060086040518060400160405280600881526020017f5f6d696e696e675f000000000000000000000000000000000000000000000000815250604051610adb9190613e6b565b908152602001604051809103902060010154610af79190613eb1565b610b019190613f22565b90506000610b6560086040518060400160405280600681526020017f5f6d6973635f0000000000000000000000000000000000000000000000000000815250604051610b4d9190613e6b565b9081526020016040518091039020600001548361203d565b9050600060086040518060400160405280600681526020017f5f6d6973635f0000000000000000000000000000000000000000000000000000815250604051610bae9190613e6b565b90815260200160405180910390206001015482610bcb9190613f53565b9050610c2f6040518060400160405280600681526020017f5f6d6973635f0000000000000000000000000000000000000000000000000000815250600760009054906101000a900473ffffffffffffffffffffffffffffffffffffffff1683612081565b6001935050505090565b6000600660009054906101000a900473ffffffffffffffffffffffffffffffffffffffff1673ffffffffffffffffffffffffffffffffffffffff16610c7c611e14565b73ffffffffffffffffffffffffffffffffffffffff1614610cd2576040517f08c379a0000000000000000000000000000000000000000000000000000000008152600401610cc990613fd3565b60405180910390fd5b610d476040518060400160405280600581526020017f5f69636f5f0000000000000000000000000000000000000000000000000000008152506040518060400160405280600981526020017f5f7374616b696e675f00000000000000000000000000000000000000000000008152508461214d565b60019050919050565b600080600073a67cf5a29fc92450e1e60239d4352b9a712884cc73ffffffffffffffffffffffffffffffffffffffff16633d0d607b610d8d611e14565b8787610d976108e2565b6040518563ffffffff1660e01b8152600401610db6949392919061406e565b60408051808303816000875af1158015610dd4573d6000803e3d6000fd5b505050506040513d601f19601f82011682018060405250810190610df891906140c3565b91509150610e2d73a67cf5a29fc92450e1e60239d4352b9a712884cc610e1c611e14565b8385610e289190614103565b611f49565b60019250505092915050565b6000738244cb2f488a07ef635b8f79ad425202411bcfe373ffffffffffffffffffffffffffffffffffffffff1663a2e4daad610e736108e2565b6040518263ffffffff1660e01b8152600401610e8f91906130db565b6020604051808303816000875af1158015610eae573d6000803e3d6000fd5b505050506040513d601f19601f82011682018060405250810190610ed2919061414c565b905090565b610edf612d02565b738244cb2f488a07ef635b8f79ad425202411bcfe373ffffffffffffffffffffffffffffffffffffffff1663d204f125610f176108e2565b6040518263ffffffff1660e01b8152600401610f3391906130db565b60c060405180830381865afa158015610f50573d6000803e3d6000fd5b505050506040513d601f19601f82011682018060405250810190610f7491906142f1565b905090565b60098054610f8690613a23565b80601f0160208091040260200160405190810160405280929190818152602001828054610fb290613a23565b8015610fff5780601f10610fd457610100808354040283529160200191610fff565b820191906000526020600020905b815481529060010190602001808311610fe257829003601f168201915b505050505081565b60008060008373ffffffffffffffffffffffffffffffffffffffff1673ffffffffffffffffffffffffffffffffffffffff168152602001908152602001600020549050919050565b611057611e2e565b6110616000612252565b565b600080600061107487878787612318565b915091508192505050949350505050565b61108d612d02565b738244cb2f488a07ef635b8f79ad425202411bcfe373ffffffffffffffffffffffffffffffffffffffff166379903540836040518263ffffffff1660e01b81526004016110da919061432d565b60c060405180830381865afa1580156110f7573d6000803e3d6000fd5b505050506040513d601f19601f8201168201806040525081019061111b91906142f1565b9050919050565b6000600660009054906101000a900473ffffffffffffffffffffffffffffffffffffffff1673ffffffffffffffffffffffffffffffffffffffff16611165611e14565b73ffffffffffffffffffffffffffffffffffffffff16146111bb576040517f08c379a00000000000000000000000000000000000000000000000000000000081526004016111b290613fd3565b60405180910390fd5b6111fb6040518060400160405280600581526020017f5f69636f5f0000000000000000000000000000000000000000000000000000008152508484612081565b6001905092915050565b6000600560009054906101000a900473ffffffffffffffffffffffffffffffffffffffff16905090565b6000611239611e2e565b81600760006101000a81548173ffffffffffffffffffffffffffffffffffffffff021916908373ffffffffffffffffffffffffffffffffffffffff16021790555060019050919050565b60606004805461129290613a23565b80601f01602080910402602001604051908101604052809291908181526020018280546112be90613a23565b801561130b5780601f106112e05761010080835404028352916020019161130b565b820191906000526020600020905b8154815290600101906020018083116112ee57829003601f168201915b5050505050905090565b600760009054906101000a900473ffffffffffffffffffffffffffffffffffffffff1681565b600660009054906101000a900473ffffffffffffffffffffffffffffffffffffffff1681565b60008061137461136f611e14565b611007565b8711156113b6576040517f08c379a00000000000000000000000000000000000000000000000000000000081526004016113ad90614394565b60405180910390fd5b6000806113c589898989612318565b915091508482101561140c576040517f08c379a000000000000000000000000000000000000000000000000000000000815260040161140390614400565b60405180910390fd5b73a67cf5a29fc92450e1e60239d4352b9a712884cc73ffffffffffffffffffffffffffffffffffffffff16631a0d47f7826040518263ffffffff1660e01b81526004016114599190614470565b600060405180830381600087803b15801561147357600080fd5b505af1158015611487573d6000803e3d6000fd5b5050505060006001620151808a61149e9190613eb1565b6114a66108e2565b64ffffffffff166114b79190614103565b6114c19190613f53565b9050600060019050606488101561151b5760648860646114e19190613f53565b620151808c6114f09190613eb1565b6114fa9190613eb1565b6115049190613f22565b90508063ffffffff16826115189190613f53565b91505b600073a67cf5a29fc92450e1e60239d4352b9a712884cc73ffffffffffffffffffffffffffffffffffffffff16636383274e611555611e14565b8e8d6115615788611564565b60005b87876040518663ffffffff1660e01b81526004016115869594939291906144b8565b6020604051808303816000875af11580156115a5573d6000803e3d6000fd5b505050506040513d601f19601f820116820180604052508101906115c9919061450b565b90506115f16115d6611e14565b73a67cf5a29fc92450e1e60239d4352b9a712884cc8e611f49565b89156116435761163e6040518060400160405280600981526020017f5f7374616b696e675f0000000000000000000000000000000000000000000000815250611638611e14565b87612081565b611698565b6116976040518060400160405280600981526020017f5f7374616b696e675f000000000000000000000000000000000000000000000081525073a67cf5a29fc92450e1e60239d4352b9a712884cc87612081565b5b80859650965050505050509550959350505050565b6000806116b8611e14565b90506116c5818585611f49565b600191505092915050565b60006116dc83836116ad565b508273ffffffffffffffffffffffffffffffffffffffff1663bec3fa17611701611e14565b846040518363ffffffff1660e01b815260040161171f929190614538565b6020604051808303816000875af115801561173e573d6000803e3d6000fd5b505050506040513d601f19601f82011682018060405250810190611762919061414c565b1561177057600190506117ab565b6040517f08c379a00000000000000000000000000000000000000000000000000000000081526004016117a2906145ad565b60405180910390fd5b92915050565b600080738244cb2f488a07ef635b8f79ad425202411bcfe373ffffffffffffffffffffffffffffffffffffffff16637bf52594846117ed6108e2565b6040518363ffffffff1660e01b815260040161180a9291906145cd565b6000604051808303816000875af1158015611829573d6000803e3d6000fd5b505050506040513d6000823e3d601f19601f8201168201806040525081019061185291906146ce565b90506000815111156118695761186883826123db565b5b6001915050919050565b600060086040518060400160405280600981526020017f5f7374616b696e675f00000000000000000000000000000000000000000000008152506040516118ba9190613e6b565b90815260200160405180910390206001015460086040518060400160405280600981526020017f5f7374616b696e675f00000000000000000000000000000000000000000000008152506040516119119190613e6b565b90815260200160405180910390206000015461192d9190613f53565b905090565b61193a612d5e565b738244cb2f488a07ef635b8f79ad425202411bcfe373ffffffffffffffffffffffffffffffffffffffff1663c69ef5c5836040518263ffffffff1660e01b815260040161198791906131be565b600060405180830381865afa1580156119a4573d6000803e3d6000fd5b505050506040513d6000823e3d601f19601f820116820180604052508101906119cd91906149a7565b9050919050565b6119dc612d82565b73a67cf5a29fc92450e1e60239d4352b9a712884cc73ffffffffffffffffffffffffffffffffffffffff1663ce325bf8836040518263ffffffff1660e01b8152600401611a2991906130a0565b60a060405180830381865afa158015611a46573d6000803e3d6000fd5b505050506040513d601f19601f82011682018060405250810190611a6a9190614b2c565b9050919050565b6000600160008473ffffffffffffffffffffffffffffffffffffffff1673ffffffffffffffffffffffffffffffffffffffff16815260200190815260200160002060008373ffffffffffffffffffffffffffffffffffffffff1673ffffffffffffffffffffffffffffffffffffffff16815260200190815260200160002054905092915050565b6000611b02611e2e565b600073ffffffffffffffffffffffffffffffffffffffff16600660009054906101000a900473ffffffffffffffffffffffffffffffffffffffff1673ffffffffffffffffffffffffffffffffffffffff161480611bee5750600660009054906101000a900473ffffffffffffffffffffffffffffffffffffffff1673ffffffffffffffffffffffffffffffffffffffff16633c81ea5a6040518163ffffffff1660e01b81526004016020604051808303816000875af1158015611bc9573d6000803e3d6000fd5b505050506040513d601f19601f82011682018060405250810190611bed919061414c565b5b611c2d576040517f08c379a0000000000000000000000000000000000000000000000000000000008152600401611c2490614ba5565b60405180910390fd5b81600660006101000a81548173ffffffffffffffffffffffffffffffffffffffff021916908373ffffffffffffffffffffffffffffffffffffffff16021790555060019050919050565b60008073ffffffffffffffffffffffffffffffffffffffff168673ffffffffffffffffffffffffffffffffffffffff1603611cb157600080fd5b600080738244cb2f488a07ef635b8f79ad425202411bcfe373ffffffffffffffffffffffffffffffffffffffff166328a14d9e8989898989611cf16108e2565b6040518763ffffffff1660e01b8152600401611d1296959493929190614bf2565b6000604051808303816000875af1158015611d31573d6000803e3d6000fd5b505050506040513d6000823e3d601f19601f82011682018060405250810190611d5a9190614c49565b91509150600082511115611d7f57611d7e600182611d789190614ca5565b836123db565b5b60019250505095945050505050565b611d96611e2e565b600073ffffffffffffffffffffffffffffffffffffffff168173ffffffffffffffffffffffffffffffffffffffff1603611e085760006040517f1e4fbdf7000000000000000000000000000000000000000000000000000000008152600401611dff91906134dd565b60405180910390fd5b611e1181612252565b50565b600033905090565b611e2983838360016126ee565b505050565b611e36611e14565b73ffffffffffffffffffffffffffffffffffffffff16611e54611205565b73ffffffffffffffffffffffffffffffffffffffff1614611eb357611e77611e14565b6040517f118cdaa7000000000000000000000000000000000000000000000000000000008152600401611eaa91906134dd565b60405180910390fd5b565b6000611ec18484611a71565b90507fffffffffffffffffffffffffffffffffffffffffffffffffffffffffffffffff8114611f435781811015611f33578281836040517ffb8f41b2000000000000000000000000000000000000000000000000000000008152600401611f2a93929190614cdc565b60405180910390fd5b611f42848484840360006126ee565b5b50505050565b600073ffffffffffffffffffffffffffffffffffffffff168373ffffffffffffffffffffffffffffffffffffffff1603611fbb5760006040517f96c6fd1e000000000000000000000000000000000000000000000000000000008152600401611fb291906134dd565b60405180910390fd5b600073ffffffffffffffffffffffffffffffffffffffff168273ffffffffffffffffffffffffffffffffffffffff160361202d5760006040517fec442f0500000000000000000000000000000000000000000000000000000000815260040161202491906134dd565b60405180910390fd5b6120388383836128c5565b505050565b6000670de0b6b3a764000061206f61205585856128d5565b6002670de0b6b3a764000061206a9190613f22565b612942565b6120799190613f22565b905092915050565b806008846040516120929190613e6b565b908152602001604051809103902060010160008282546120b29190614103565b925050819055506008836040516120c99190613e6b565b9081526020016040518091039020600001546008846040516120eb9190613e6b565b908152602001604051809103902060010154111561213e576040517f08c379a000000000000000000000000000000000000000000000000000000000815260040161213590614d5f565b60405180910390fd5b612148828261299b565b505050565b8060088460405161215e9190613e6b565b9081526020016040518091039020600101546008856040516121809190613e6b565b90815260200160405180910390206000015461219c9190613f53565b10156121dd576040517f08c379a00000000000000000000000000000000000000000000000000000000081526004016121d490614394565b60405180910390fd5b806008846040516121ee9190613e6b565b9081526020016040518091039020600001600082825461220e9190613f53565b92505081905550806008836040516122269190613e6b565b908152602001604051809103902060000160008282546122469190614103565b92505081905550505050565b6000600560009054906101000a900473ffffffffffffffffffffffffffffffffffffffff16905081600560006101000a81548173ffffffffffffffffffffffffffffffffffffffff021916908373ffffffffffffffffffffffffffffffffffffffff1602179055508173ffffffffffffffffffffffffffffffffffffffff168173ffffffffffffffffffffffffffffffffffffffff167f8be0079c531659141344cd1fd0a4f28419497f9722a3daafe3b4186f6b6457e060405160405180910390a35050565b6000612322612ddb565b600061232c611873565b905073a67cf5a29fc92450e1e60239d4352b9a712884cc73ffffffffffffffffffffffffffffffffffffffff16632b8fbe8f888888888661236b6108e2565b6040518763ffffffff1660e01b815260040161238c96959493929190614d7f565b606060405180830381865afa1580156123a9573d6000803e3d6000fd5b505050506040513d601f19601f820116820180604052508101906123cd9190614e5c565b925092505094509492505050565b6000738244cb2f488a07ef635b8f79ad425202411bcfe373ffffffffffffffffffffffffffffffffffffffff1663a2924510846040518263ffffffff1660e01b815260040161242a919061432d565b602060405180830381865afa158015612447573d6000803e3d6000fd5b505050506040513d601f19601f8201168201806040525081019061246b9190614e9c565b90506000738244cb2f488a07ef635b8f79ad425202411bcfe373ffffffffffffffffffffffffffffffffffffffff1663c69ef5c5836040518263ffffffff1660e01b81526004016124bc91906131be565b600060405180830381865afa1580156124d9573d6000803e3d6000fd5b505050506040513d6000823e3d601f19601f8201168201806040525081019061250291906149a7565b6000015190506000738244cb2f488a07ef635b8f79ad425202411bcfe373ffffffffffffffffffffffffffffffffffffffff16633d189c35866040518263ffffffff1660e01b8152600401612557919061432d565b600060405180830381865afa158015612574573d6000803e3d6000fd5b505050506040513d6000823e3d601f19601f8201168201806040525081019061259d9190614ec9565b90506000805b85518160ff161015612665576126296040518060400160405280600881526020017f5f6d696e696e675f000000000000000000000000000000000000000000000000815250878360ff16815181106125fe576125fd614f12565b5b6020026020010151858460ff168151811061261c5761261b614f12565b5b6020026020010151612081565b828160ff168151811061263f5761263e614f12565b5b6020026020010151826126529190614103565b91508061265e90614f41565b90506125a3565b506126e66040518060400160405280600881526020017f5f6d696e696e675f0000000000000000000000000000000000000000000000008152506040518060400160405280600981526020017f5f7374616b696e675f000000000000000000000000000000000000000000000081525083866126e19190613f53565b61214d565b505050505050565b600073ffffffffffffffffffffffffffffffffffffffff168473ffffffffffffffffffffffffffffffffffffffff16036127605760006040517fe602df0500000000000000000000000000000000000000000000000000000000815260040161275791906134dd565b60405180910390fd5b600073ffffffffffffffffffffffffffffffffffffffff168373ffffffffffffffffffffffffffffffffffffffff16036127d25760006040517f94280d620000000000000000000000000000000000000000000000000000000081526004016127c991906134dd565b60405180910390fd5b81600160008673ffffffffffffffffffffffffffffffffffffffff1673ffffffffffffffffffffffffffffffffffffffff16815260200190815260200160002060008573ffffffffffffffffffffffffffffffffffffffff1673ffffffffffffffffffffffffffffffffffffffff1681526020019081526020016000208190555080156128bf578273ffffffffffffffffffffffffffffffffffffffff168473ffffffffffffffffffffffffffffffffffffffff167f8c5be1e5ebec7d5bd14f71427d1e84f3dd0314c0f7b2291e5b200ac8c7c3b925846040516128b691906130a0565b60405180910390a35b50505050565b6128d0838383612a1d565b505050565b6000808214806128fd5750828283856128ee9190613eb1565b9250826128fb9190613f22565b145b61293c576040517f08c379a000000000000000000000000000000000000000000000000000000000815260040161293390614fb6565b60405180910390fd5b92915050565b60008282846129519190614103565b9150811015612995576040517f08c379a000000000000000000000000000000000000000000000000000000000815260040161298c90615022565b60405180910390fd5b92915050565b600073ffffffffffffffffffffffffffffffffffffffff168273ffffffffffffffffffffffffffffffffffffffff1603612a0d5760006040517fec442f05000000000000000000000000000000000000000000000000000000008152600401612a0491906134dd565b60405180910390fd5b612a19600083836128c5565b5050565b612a28838383612ac3565b600073ffffffffffffffffffffffffffffffffffffffff168373ffffffffffffffffffffffffffffffffffffffff1603612abe576000612a66610971565b90506000612a726108d8565b905081811115612abb5780826040517f9e79f854000000000000000000000000000000000000000000000000000000008152600401612ab2929190613573565b60405180910390fd5b50505b505050565b600073ffffffffffffffffffffffffffffffffffffffff168373ffffffffffffffffffffffffffffffffffffffff1603612b15578060026000828254612b099190614103565b92505081905550612be8565b60008060008573ffffffffffffffffffffffffffffffffffffffff1673ffffffffffffffffffffffffffffffffffffffff16815260200190815260200160002054905081811015612ba1578381836040517fe450d38c000000000000000000000000000000000000000000000000000000008152600401612b9893929190614cdc565b60405180910390fd5b8181036000808673ffffffffffffffffffffffffffffffffffffffff1673ffffffffffffffffffffffffffffffffffffffff16815260200190815260200160002081905550505b600073ffffffffffffffffffffffffffffffffffffffff168273ffffffffffffffffffffffffffffffffffffffff1603612c315780600260008282540392505081905550612c7e565b806000808473ffffffffffffffffffffffffffffffffffffffff1673ffffffffffffffffffffffffffffffffffffffff168152602001908152602001600020600082825401925050819055505b8173ffffffffffffffffffffffffffffffffffffffff168373ffffffffffffffffffffffffffffffffffffffff167fddf252ad1be2c89b69c2b068fc378daa952ba7f163c4a11628f55a4df523b3ef83604051612cdb91906130a0565b60405180910390a3505050565b604051806040016040528060008152602001600081525090565b6040518060c00160405280600062ffffff16815260200160001515815260200160006fffffffffffffffffffffffffffffffff168152602001600064ffffffffff168152602001600060ff168152602001600060ff1681525090565b604051806060016040528060008152602001600060ff168152602001606081525090565b6040518060a00160405280600064ffffffffff168152602001600063ffffffff16815260200160006affffffffffffffffffffff168152602001600069ffffffffffffffffffff168152602001600061ffff1681525090565b604051806040016040528060006fffffffffffffffffffffffffffffffff168152602001600065ffffffffffff1681525090565b600081519050919050565b600082825260208201905092915050565b60005b83811015612e49578082015181840152602081019050612e2e565b60008484015250505050565b6000601f19601f8301169050919050565b6000612e7182612e0f565b612e7b8185612e1a565b9350612e8b818560208601612e2b565b612e9481612e55565b840191505092915050565b60006020820190508181036000830152612eb98184612e66565b905092915050565b6000604051905090565b600080fd5b600080fd5b600073ffffffffffffffffffffffffffffffffffffffff82169050919050565b6000612f0082612ed5565b9050919050565b612f1081612ef5565b8114612f1b57600080fd5b50565b600081359050612f2d81612f07565b92915050565b6000819050919050565b612f4681612f33565b8114612f5157600080fd5b50565b600081359050612f6381612f3d565b92915050565b60008060408385031215612f8057612f7f612ecb565b5b6000612f8e85828601612f1e565b9250506020612f9f85828601612f54565b9150509250929050565b60008115159050919050565b612fbe81612fa9565b82525050565b6000602082019050612fd96000830184612fb5565b92915050565b600080fd5b600080fd5b600080fd5b60008083601f84011261300457613003612fdf565b5b8235905067ffffffffffffffff81111561302157613020612fe4565b5b60208301915083600182028301111561303d5761303c612fe9565b5b9250929050565b6000806020838503121561305b5761305a612ecb565b5b600083013567ffffffffffffffff81111561307957613078612ed0565b5b61308585828601612fee565b92509250509250929050565b61309a81612f33565b82525050565b60006020820190506130b56000830184613091565b92915050565b600064ffffffffff82169050919050565b6130d5816130bb565b82525050565b60006020820190506130f060008301846130cc565b92915050565b60008060006060848603121561310f5761310e612ecb565b5b600061311d86828701612f1e565b935050602061312e86828701612f1e565b925050604061313f86828701612f54565b9150509250925092565b61315281612f33565b82525050565b60408201600082015161316e6000850182613149565b5060208201516131816020850182613149565b50505050565b600060408201905061319c6000830184613158565b92915050565b600060ff82169050919050565b6131b8816131a2565b82525050565b60006020820190506131d360008301846131af565b92915050565b6000602082840312156131ef576131ee612ecb565b5b60006131fd84828501612f54565b91505092915050565b60008083601f84011261321c5761321b612fdf565b5b8235905067ffffffffffffffff81111561323957613238612fe4565b5b60208301915083602082028301111561325557613254612fe9565b5b9250929050565b6000806020838503121561327357613272612ecb565b5b600083013567ffffffffffffffff81111561329157613290612ed0565b5b61329d85828601613206565b92509250509250929050565b600062ffffff82169050919050565b6132c1816132a9565b82525050565b6132d081612fa9565b82525050565b60006fffffffffffffffffffffffffffffffff82169050919050565b6132fb816132d6565b82525050565b61330a816130bb565b82525050565b613319816131a2565b82525050565b60c08201600082015161333560008501826132b8565b50602082015161334860208501826132c7565b50604082015161335b60408501826132f2565b50606082015161336e6060850182613301565b5060808201516133816080850182613310565b5060a082015161339460a0850182613310565b50505050565b600060c0820190506133af600083018461331f565b92915050565b6000602082840312156133cb576133ca612ecb565b5b60006133d984828501612f1e565b91505092915050565b6133eb81612fa9565b81146133f657600080fd5b50565b600081359050613408816133e2565b92915050565b6000806000806080858703121561342857613427612ecb565b5b600061343687828801612f54565b945050602061344787828801612f54565b9350506040613458878288016133f9565b925050606061346987828801612f54565b91505092959194509250565b61347e816132a9565b811461348957600080fd5b50565b60008135905061349b81613475565b92915050565b6000602082840312156134b7576134b6612ecb565b5b60006134c58482850161348c565b91505092915050565b6134d781612ef5565b82525050565b60006020820190506134f260008301846134ce565b92915050565b600080600080600060a0868803121561351457613513612ecb565b5b600061352288828901612f54565b955050602061353388828901612f54565b9450506040613544888289016133f9565b935050606061355588828901612f54565b925050608061356688828901612f54565b9150509295509295909350565b60006040820190506135886000830185613091565b6135956020830184613091565b9392505050565b6135a5816131a2565b81146135b057600080fd5b50565b6000813590506135c28161359c565b92915050565b6000602082840312156135de576135dd612ecb565b5b60006135ec848285016135b3565b91505092915050565b600081519050919050565b600082825260208201905092915050565b6000819050602082019050919050565b600081519050919050565b600082825260208201905092915050565b6000819050602082019050919050565b60006136598383613149565b60208301905092915050565b6000602082019050919050565b600061367d82613621565b613687818561362c565b93506136928361363d565b8060005b838110156136c35781516136aa888261364d565b97506136b583613665565b925050600181019050613696565b5085935050505092915050565b60006040830160008301516136e86000860182613149565b50602083015184820360208601526137008282613672565b9150508091505092915050565b600061371983836136d0565b905092915050565b6000602082019050919050565b6000613739826135f5565b6137438185613600565b93508360208202850161375585613611565b8060005b858110156137915784840389528151613772858261370d565b945061377d83613721565b925060208a01995050600181019050613759565b50829750879550505050505092915050565b60006060830160008301516137bb6000860182613149565b5060208301516137ce6020860182613310565b50604083015184820360408601526137e6828261372e565b9150508091505092915050565b6000602082019050818103600083015261380d81846137a3565b905092915050565b600063ffffffff82169050919050565b61382e81613815565b82525050565b60006affffffffffffffffffffff82169050919050565b61385481613834565b82525050565b600069ffffffffffffffffffff82169050919050565b6138798161385a565b82525050565b600061ffff82169050919050565b6138968161387f565b82525050565b60a0820160008201516138b26000850182613301565b5060208201516138c56020850182613825565b5060408201516138d8604085018261384b565b5060608201516138eb6060850182613870565b5060808201516138fe608085018261388d565b50505050565b600060a082019050613919600083018461389c565b92915050565b6000806040838503121561393657613935612ecb565b5b600061394485828601612f1e565b925050602061395585828601612f1e565b9150509250929050565b60008060008060006060868803121561397b5761397a612ecb565b5b600061398988828901612f1e565b955050602086013567ffffffffffffffff8111156139aa576139a9612ed0565b5b6139b688828901612fee565b9450945050604086013567ffffffffffffffff8111156139d9576139d8612ed0565b5b6139e588828901612fee565b92509250509295509295909350565b7f4e487b7100000000000000000000000000000000000000000000000000000000600052602260045260246000fd5b60006002820490506001821680613a3b57607f821691505b602082108103613a4e57613a4d6139f4565b5b50919050565b7f414c52454144595f534554000000000000000000000000000000000000000000600082015250565b6000613a8a600b83612e1a565b9150613a9582613a54565b602082019050919050565b60006020820190508181036000830152613ab981613a7d565b9050919050565b600082905092915050565b7f4e487b7100000000000000000000000000000000000000000000000000000000600052604160045260246000fd5b60008190508160005260206000209050919050565b60006020601f8301049050919050565b600082821b905092915050565b600060088302613b5c7fffffffffffffffffffffffffffffffffffffffffffffffffffffffffffffffff82613b1f565b613b668683613b1f565b95508019841693508086168417925050509392505050565b6000819050919050565b6000613ba3613b9e613b9984612f33565b613b7e565b612f33565b9050919050565b6000819050919050565b613bbd83613b88565b613bd1613bc982613baa565b848454613b2c565b825550505050565b600090565b613be6613bd9565b613bf1818484613bb4565b505050565b5b81811015613c1557613c0a600082613bde565b600181019050613bf7565b5050565b601f821115613c5a57613c2b81613afa565b613c3484613b0f565b81016020851015613c43578190505b613c57613c4f85613b0f565b830182613bf6565b50505b505050565b600082821c905092915050565b6000613c7d60001984600802613c5f565b1980831691505092915050565b6000613c968383613c6c565b9150826002028217905092915050565b613cb08383613ac0565b67ffffffffffffffff811115613cc957613cc8613acb565b5b613cd38254613a23565b613cde828285613c19565b6000601f831160018114613d0d5760008415613cfb578287013590505b613d058582613c8a565b865550613d6d565b601f198416613d1b86613afa565b60005b82811015613d4357848901358255600182019150602085019450602081019050613d1e565b86831015613d605784890135613d5c601f891682613c6c565b8355505b6001600288020188555050505b50505050505050565b600081905092915050565b82818337600083830152505050565b6000613d9c8385613d76565b9350613da9838584613d81565b82840190509392505050565b6000613dc2828486613d90565b91508190509392505050565b7f4d4953435f434f4e54524143545f4552524f5200000000000000000000000000600082015250565b6000613e04601383612e1a565b9150613e0f82613dce565b602082019050919050565b60006020820190508181036000830152613e3381613df7565b9050919050565b6000613e4582612e0f565b613e4f8185613d76565b9350613e5f818560208601612e2b565b80840191505092915050565b6000613e778284613e3a565b915081905092915050565b7f4e487b7100000000000000000000000000000000000000000000000000000000600052601160045260246000fd5b6000613ebc82612f33565b9150613ec783612f33565b9250828202613ed581612f33565b91508282048414831517613eec57613eeb613e82565b5b5092915050565b7f4e487b7100000000000000000000000000000000000000000000000000000000600052601260045260246000fd5b6000613f2d82612f33565b9150613f3883612f33565b925082613f4857613f47613ef3565b5b828204905092915050565b6000613f5e82612f33565b9150613f6983612f33565b9250828203905081811115613f8157613f80613e82565b5b92915050565b7f554e415554484f52495a45440000000000000000000000000000000000000000600082015250565b6000613fbd600c83612e1a565b9150613fc882613f87565b602082019050919050565b60006020820190508181036000830152613fec81613fb0565b9050919050565b600082825260208201905092915050565b600080fd5b82818337505050565b600061401e8385613ff3565b93507f07ffffffffffffffffffffffffffffffffffffffffffffffffffffffffffffff83111561405157614050614004565b5b602083029250614062838584614009565b82840190509392505050565b600060608201905061408360008301876134ce565b8181036020830152614096818587614012565b90506140a560408301846130cc565b95945050505050565b6000815190506140bd81612f3d565b92915050565b600080604083850312156140da576140d9612ecb565b5b60006140e8858286016140ae565b92505060206140f9858286016140ae565b9150509250929050565b600061410e82612f33565b915061411983612f33565b925082820190508082111561413157614130613e82565b5b92915050565b600081519050614146816133e2565b92915050565b60006020828403121561416257614161612ecb565b5b600061417084828501614137565b91505092915050565b600080fd5b61418782612e55565b810181811067ffffffffffffffff821117156141a6576141a5613acb565b5b80604052505050565b60006141b9612ec1565b90506141c5828261417e565b919050565b600080fd5b6000815190506141de81613475565b92915050565b6141ed816132d6565b81146141f857600080fd5b50565b60008151905061420a816141e4565b92915050565b614219816130bb565b811461422457600080fd5b50565b60008151905061423681614210565b92915050565b60008151905061424b8161359c565b92915050565b600060c0828403121561426757614266614179565b5b61427160c06141af565b90506000614281848285016141cf565b600083015250602061429584828501614137565b60208301525060406142a9848285016141fb565b60408301525060606142bd84828501614227565b60608301525060806142d18482850161423c565b60808301525060a06142e58482850161423c565b60a08301525092915050565b600060c0828403121561430757614306612ecb565b5b600061431584828501614251565b91505092915050565b614327816132a9565b82525050565b6000602082019050614342600083018461431e565b92915050565b7f494e53554646494349454e545f46554e44530000000000000000000000000000600082015250565b600061437e601283612e1a565b915061438982614348565b602082019050919050565b600060208201905081810360008301526143ad81614371565b9050919050565b7f4552524f525f4d494e5f494e5445524553540000000000000000000000000000600082015250565b60006143ea601283612e1a565b91506143f5826143b4565b602082019050919050565b60006020820190508181036000830152614419816143dd565b9050919050565b600065ffffffffffff82169050919050565b61443b81614420565b82525050565b60408201600082015161445760008501826132f2565b50602082015161446a6020850182614432565b50505050565b60006040820190506144856000830184614441565b92915050565b61449481613834565b82525050565b6144a38161385a565b82525050565b6144b281613815565b82525050565b600060a0820190506144cd60008301886134ce565b6144da602083018761448b565b6144e7604083018661449a565b6144f460608301856130cc565b61450160808301846144a9565b9695505050505050565b60006020828403121561452157614520612ecb565b5b600061452f848285016140ae565b91505092915050565b600060408201905061454d60008301856134ce565b61455a6020830184613091565b9392505050565b7f434f4e54524143545f5452414e534645525f4552524f52000000000000000000600082015250565b6000614597601783612e1a565b91506145a282614561565b602082019050919050565b600060208201905081810360008301526145c68161458a565b9050919050565b60006040820190506145e2600083018561431e565b6145ef60208301846130cc565b9392505050565b600067ffffffffffffffff82111561461157614610613acb565b5b602082029050602081019050919050565b60008151905061463181612f07565b92915050565b600061464a614645846145f6565b6141af565b9050808382526020820190506020840283018581111561466d5761466c612fe9565b5b835b8181101561469657806146828882614622565b84526020840193505060208101905061466f565b5050509392505050565b600082601f8301126146b5576146b4612fdf565b5b81516146c5848260208601614637565b91505092915050565b6000602082840312156146e4576146e3612ecb565b5b600082015167ffffffffffffffff81111561470257614701612ed0565b5b61470e848285016146a0565b91505092915050565b600067ffffffffffffffff82111561473257614731613acb565b5b602082029050602081019050919050565b600067ffffffffffffffff82111561475e5761475d613acb565b5b602082029050602081019050919050565b600061478261477d84614743565b6141af565b905080838252602082019050602084028301858111156147a5576147a4612fe9565b5b835b818110156147ce57806147ba88826140ae565b8452602084019350506020810190506147a7565b5050509392505050565b600082601f8301126147ed576147ec612fdf565b5b81516147fd84826020860161476f565b91505092915050565b60006040828403121561481c5761481b614179565b5b61482660406141af565b90506000614836848285016140ae565b600083015250602082015167ffffffffffffffff81111561485a576148596141ca565b5b614866848285016147d8565b60208301525092915050565b600061488561488084614717565b6141af565b905080838252602082019050602084028301858111156148a8576148a7612fe9565b5b835b818110156148ef57805167ffffffffffffffff8111156148cd576148cc612fdf565b5b8086016148da8982614806565b855260208501945050506020810190506148aa565b5050509392505050565b600082601f83011261490e5761490d612fdf565b5b815161491e848260208601614872565b91505092915050565b60006060828403121561493d5761493c614179565b5b61494760606141af565b90506000614957848285016140ae565b600083015250602061496b8482850161423c565b602083015250604082015167ffffffffffffffff81111561498f5761498e6141ca565b5b61499b848285016148f9565b60408301525092915050565b6000602082840312156149bd576149bc612ecb565b5b600082015167ffffffffffffffff8111156149db576149da612ed0565b5b6149e784828501614927565b91505092915050565b6149f981613815565b8114614a0457600080fd5b50565b600081519050614a16816149f0565b92915050565b614a2581613834565b8114614a3057600080fd5b50565b600081519050614a4281614a1c565b92915050565b614a518161385a565b8114614a5c57600080fd5b50565b600081519050614a6e81614a48565b92915050565b614a7d8161387f565b8114614a8857600080fd5b50565b600081519050614a9a81614a74565b92915050565b600060a08284031215614ab657614ab5614179565b5b614ac060a06141af565b90506000614ad084828501614227565b6000830152506020614ae484828501614a07565b6020830152506040614af884828501614a33565b6040830152506060614b0c84828501614a5f565b6060830152506080614b2084828501614a8b565b60808301525092915050565b600060a08284031215614b4257614b41612ecb565b5b6000614b5084828501614aa0565b91505092915050565b7f554e414c4c4f5745440000000000000000000000000000000000000000000000600082015250565b6000614b8f600983612e1a565b9150614b9a82614b59565b602082019050919050565b60006020820190508181036000830152614bbe81614b82565b9050919050565b6000614bd18385612e1a565b9350614bde838584613d81565b614be783612e55565b840190509392505050565b6000608082019050614c0760008301896134ce565b8181036020830152614c1a818789614bc5565b90508181036040830152614c2f818587614bc5565b9050614c3e60608301846130cc565b979650505050505050565b60008060408385031215614c6057614c5f612ecb565b5b600083015167ffffffffffffffff811115614c7e57614c7d612ed0565b5b614c8a858286016146a0565b9250506020614c9b858286016141cf565b9150509250929050565b6000614cb0826132a9565b9150614cbb836132a9565b9250828203905062ffffff811115614cd657614cd5613e82565b5b92915050565b6000606082019050614cf160008301866134ce565b614cfe6020830185613091565b614d0b6040830184613091565b949350505050565b7f4e4f5f4d494e545f46554e445300000000000000000000000000000000000000600082015250565b6000614d49600d83612e1a565b9150614d5482614d13565b602082019050919050565b60006020820190508181036000830152614d7881614d3c565b9050919050565b600060c082019050614d946000830189613091565b614da16020830188613091565b614dae6040830187612fb5565b614dbb6060830186613091565b614dc86080830185613091565b614dd560a08301846130cc565b979650505050505050565b614de981614420565b8114614df457600080fd5b50565b600081519050614e0681614de0565b92915050565b600060408284031215614e2257614e21614179565b5b614e2c60406141af565b90506000614e3c848285016141fb565b6000830152506020614e5084828501614df7565b60208301525092915050565b60008060608385031215614e7357614e72612ecb565b5b6000614e81858286016140ae565b9250506020614e9285828601614e0c565b9150509250929050565b600060208284031215614eb257614eb1612ecb565b5b6000614ec08482850161423c565b91505092915050565b600060208284031215614edf57614ede612ecb565b5b600082015167ffffffffffffffff811115614efd57614efc612ed0565b5b614f09848285016147d8565b91505092915050565b7f4e487b7100000000000000000000000000000000000000000000000000000000600052603260045260246000fd5b6000614f4c826131a2565b915060ff8203614f5f57614f5e613e82565b5b600182019050919050565b7f64732d6d6174682d6d756c2d6f766572666c6f77000000000000000000000000600082015250565b6000614fa0601483612e1a565b9150614fab82614f6a565b602082019050919050565b60006020820190508181036000830152614fcf81614f93565b9050919050565b7f64732d6d6174682d6164642d6f766572666c6f77000000000000000000000000600082015250565b600061500c601483612e1a565b915061501782614fd6565b602082019050919050565b6000602082019050818103600083015261503b81614fff565b905091905056fea2646970667358221220b75ebe5f4752b5eff4919fb9211f2dc11b8ae12dfdffe99d795483fedf7a926f64736f6c63430008180033",
  "linkReferences": {},
  "deployedLinkReferences": {}
}